:100000000C94A5030C94DD030C94DD030C94DD0328
:100010000C94DD030C94DD030C94DD030C94DD03E0
:100020000C94DD030C94DD030C94371B0C94F31A31
:100030000C94341C0C94DD030C94DD030C94DD0350
:100040000C94DD030C94DD030C94DD030C94DD03B0
:100050000C94DD030C94101C0C94DD030C94DD0354
:100060000C94DD030C94DD030C94DD030C94DD0390
:100070000C94DD030C94DD030C94DD030C94DD0380
:100080000C94DD030C94DD030C94DD030C94DD0370
:100090000C94DD030C94DD030C94DD030C94DD0360
:1000A0000C94DD030C94DD030C94DD030501098041
:1000B000A101850319012AB700150126B700950192
:1000C00075108100C0050C0901A101850419012AE0
:1000D000A002150126A002950175108100C00660DE
:1000E000FF0961A1010962150026FF00952075082E
:1000F00081020963150026FF00952075089102C052
:1001000005010906A101050719E029E715002501E8
:10011000950875018102950175088101050719008F
:1001200029FF150026FF00950675088100050819AE
:10013000012905950575019102950175039101C08D
:1001400000047F3F1F643214643214783C1E1E1476
:100150000A05FD377A585A000004E6D6B446020074
:10016000210116000000742FE5A3E0027F00FC5D72
:10017000003D8889C65436C3174FE4F4BD2572E7A5
:1001800092F8142F9BBC4770F14184712D94E84480
:10019000EB841CB6C4374F55BA202A436F7E50C13A
:1001A000C55912C034BB44C72700BB236BB87E219E
:1001B0004172B2E0ECA08378BFAB2F94439846C263
:1001C0009EC50026959174ED692B271ACE6D709708
:1001D000FD431C7772989E266586D662A5E0AB2B00
:1001E000ACFF068F89341F401E70D0DD42F642AE50
:1001F000B0F898A4F932091994CA2CCE5D78D4BA13
:100200006AD6BA42DF474B214F91BC3741F3116F99
:10021000D244BF185433A6A51E15A0117022949184
:10022000F98566436B7EDBB451EA43BA6AC6AEEA2F
:10023000F76C9722E844061070949EEFD536F331A0
:10024000AEFA981C7B67F8CE187FE36F95AB5C0A1B
:100250003267278487C09E4035DE08EB3651831015
:10026000B6F8D3DF679E10D7D1EC524BA4009CC0E8
:10027000FD32E3C100A5000198028005000043673C
:1002800032A3B1C467FB020000000004595A000108
:100290000101010101010101020202020202020246
:1002A0000203030303030303030404040404040418
:1002B00005050505050606060606070707070708DC
:1002C000080808090909090A0A0A0B0B0B0C0C0C8F
:1002D0000D0D0D0E0E0E0F0F0F1010111111121229
:1002E00013131414151516161717181819191A1AA6
:1002F0001B1B1C1D1D1E1E1F202021222223242407
:10030000252626272829292A2B2C2D2D2E2F303142
:100310003232333435363738393A3B3C3D3E3F4054
:100320004142434445464748494A4C4D4E4F50513F
:100330005354555658595A5B5D5E5F6162646566F9
:1003400068696B6C6D6F7072737577787A7B7D7E80
:100350008082838587888A8C8E8F91939596989AD0
:100360009C9EA0A2A3A5A7A9ABADAFB1B3B5B7BAE8
:10037000BCBEC0C2C4C6C9CBCDCFD1D4D6D8DBDDBC
:10038000DFE2E4E7E9EBEEF0F3F5F8FAFDFFFFAAB0
:100390007F55402223252628292A2C2D2F30323321
:1003A0003536383A3B3D3E4042434547494A4C4E3C
:1003B0005051535557595A5C5E6062646668696B68
:1003C0006D6F71737577797B7D7F81838587898A6E
:1003D0008C8E90929496989A9C9E9FA1A3A5A7A874
:1003E000AAACAEAFB1B3B4B6B8B9BBBCBEBFC1C2A4
:1003F000C3C5C6C7C9CACBCCCDCED0D1D2D2D3D437
:10040000D5D6D7D7D8D9D9DADADBDBDBDCDCDCDC54
:10041000DCDDDDDDDDDCDCDCDCDCDBDBDBDADAD922
:10042000D9D8D7D7D6D5D4D3D2D2D1D0CECDCCCBA4
:10043000CAC9C7C6C5C3C2C1BFBEBCBBB9B8B6B4C2
:10044000B3B1AFAEACAAA8A7A5A3A19F9E9C9A9852
:10045000969492908E8C8A89878583817F7D7B7923
:10046000777573716F6D6B6968666462605E5C5A04
:100470005957555351504E4C4A4947454342403EC7
:100480003D3B3A3836353332302F2D2C2A29282659
:1004900025232229001A0015001C000C001300302F
:1004A0000000002B00160009000B000E003300288E
:1004B000000000E1001B0019000500100037005289
:1004C000000000E000E2002C0001512A00E300508F
:1004D000004F00140008001700180012002F003110
:1004E000000000040007000A000D000F00340002A5
:1004F0005100001D000600050011003600380051B3
:100500000000004C001F0021002300250027002EC2
:1005100000000001003B003D003F0041004300455A
:10052000000000E500C35C01000100A8000100A973
:1005300000000001000100010001000100010001B4
:100540000001001E0020002200240026002D0031A2
:100550000000003A003C003E004000420044000120
:10056000000000C25C01000100010001000100AABE
:1005700000000035020100010001004900460001B1
:100580000000000100010001004A0001000100011B
:100590000000000100010001000100010001004B0A
:1005A0000000000100010001000100010001000144
:1005B00000010001004D00010001000100010000E8
:1005C0005C000001004C000100010001000100017D
:1005D0000000000100010001000100010001004EC7
:1005E00000000009025B00030100A0FA09040000FA
:1005F000010301010009211101000122400007054A
:100600008103080001090401000203000000092120
:1006100011010001222200070582032000010705C5
:100620000303200001090402000103000000092166
:10063000110100012232000705840320000112018C
:10064000000200000008EDFE0000010001020301AD
:100650001C037600690061006C003A0066003600F9
:1006600034006300320062003300630000001803AE
:100670006B006F006C0069006200720069006D0021
:1006800069006E00690000000C036B0072006500D9
:100690006D00650000000403090400000000000074
:1006A000000000000000000000000000000000004A
:1006B00000000000000000000000000000007E0FAD
:1006C00000D4FFFFFFC7000000780000000000001A
:1006D00000002A2B2800000000000000000000009D
:1006E000000000000029000000002C1E3420212200
:1006F00024342627252E362D3738271E1F20212269
:10070000232425263333362E37381F0405060708E1
:10071000090A0B0C0D0E0F101112131415161718D1
:10072000191A1B1C1D2F3130232D3504050607080F
:10073000090A0B0C0D0E0F101112131415161718B1
:10074000191A1B1C1D2F3130354C11241FBECFEF41
:10075000DAE0DEBFCDBF04B603FE18C0809183028D
:1007600090918402A0918502B09186028730904BCF
:10077000A740B04B59F41092830210928402109259
:10078000850210928602E0E0F8E3099511E0A0E00E
:10079000B1E0EEEBF6E402C005900D92AA39B10784
:1007A000D9F722E0AAE9B1E001C01D92A338B2074F
:1007B000E1F70E945B1C0C9439230C940000E8EDD7
:1007C000F0E080818E7F80831092E2001092DA0048
:1007D0001092E100A0EEB0E08C9181608C9380815A
:1007E0008F77808319BCA7EDB0E08C918E7F8C93BE
:1007F00080818F7E808310926A0208952091E400A8
:100800003091E50095E6A9012091EC00822F8170DE
:1008100020FF06C08091E80080FF06C080E00895B8
:100820002091E80022FD1AC080917802882389F087
:10083000853089F08091EB0085FD0FC02091E400A8
:100840003091E50042175307F9F29150E1F684E048
:10085000089582E0089583E0089581E00895EF927D
:10086000FF920F931F93CF937C018B010E94FE0395
:10087000C82F811117C08091E80085FD0BC08091C1
:10088000E8008E778093E8000E94FE03882399F3A6
:10089000C82F08C0F70181917F018093F1000150BA
:1008A000110949F78C2FCF911F910F91FF90EF9075
:1008B000089580917A0287FF13C08091E80082FF3B
:1008C00006C08091E8008B778093E80004C0809197
:1008D00078028111F2CF0895809178028823D9F3AC
:1008E0008091E80080FFF8CF8091E8008E77ECCF10
:1008F000982F9093E900242F762F50E0891731F03C
:100900007091EC002091ED005091F00021FD07C0A6
:100910009F5F973071F78093E90081E008953091EF
:10092000EB003E7F3093EB003091ED003D7F309344
:10093000ED003091EB0031603093EB007093EC00F0
:100940002093ED005093F0002091EE0027FDE0CFC2
:1009500080E00895B0E0A0E0E0EBF4E00C948E229B
:10096000C8EDD0E088818F7E8883E7EDF0E080815C
:100970008160808384E082BF81E080936A02888105
:100980008E7F888302EE10E0F80110821092DA0068
:1009900081EEC82ED12CF601108288818F77888352
:1009A00088818068888388818F7D888319BC1092B4
:1009B000780210927902109277021092760290EEED
:1009C000E92EF12CF70180818B7F80838881816003
:1009D000888342E060E080E00E947804F601808134
:1009E0008E7F8083F8018081816080838081886030
:1009F0008083F70180818E7F8083888180618883F6
:100A0000CDB7DEB7E8E00C94AA22FC018091800209
:100A10009091810286179707A0F06115710529F45E
:100A20009091E8009E779093E80090E06115710541
:100A300051F4911108C08091E80082FF34C080E039
:100A40000895BC01F2CF809178028823C1F18530EE
:100A5000C1F18091E80083FD30C08091E80082FD03
:100A6000EACF8091E80080FFE1CF8091F3002091F0
:100A7000F200382F6115710519F02830310558F052
:100A800091E02830310509F090E02091E8002E77C0
:100A90002093E800CBCF81918093F10061507109E0
:100AA0002F5F3F4FE7CF80917802882341F0853058
:100AB00041F08091E80083FFBECF81E0089582E09D
:100AC000089583E0089508950895089580916D0232
:100AD00008952FB7F8948091630290916402A091D9
:100AE0006502B09166022FBF089520916002309197
:100AF00061022817390771F09093610280936002B8
:100B0000E0915E02F0915F02309721F00084F18560
:100B1000E02D0995089520915C0230915D0228171F
:100B2000390771F090935D0280935C02E0915E0260
:100B3000F0915F02309721F00680F781E02D099552
:100B40000895E0915E02F0915F02309729F00190E4
:100B5000F081E02D0995089580E00895FA01811152
:100B600001C0FB010995089580915302982F9E7F43
:100B700029F4817082608093530208958A34E8F3E7
:100B800081708864F8CFAF92BF92DF92EF92FF92AC
:100B90000F931F93CF93DF93082F162FE901E42FB4
:100BA000F0E0E257FD4F611110C0E4915E2F4E2F2F
:100BB0004983E8835A83DF91CF911F910F91FF9072
:100BC000EF90DF90BF90AF900895E62EF12C449106
:100BD000D42EE42FF0E026E0829FC00111242FEFF5
:100BE00030E0B9010E94FC21802F90E0880F991F0E
:100BF00055E5569FD001579FB00D11248A1B9B0BC2
:100C0000982F990F890F5901AE18BF08AE9ED001D9
:100C1000AF9EB00DBE9EB00D11245B2F189F8001BA
:100C20001124012F11275901A01AB10AAE9E80018B
:100C3000AF9E100DBE9E100D11245901A81AB108C7
:100C4000AE9CC001AF9C900DBE9C900D1124892FCD
:100C50009927281B390B2E9FC0012F9F900D3E9F77
:100C6000900D1124E92F62307105A1F050F4611547
:100C7000710509F49DCF6130710581F0EB2F512F83
:100C800097CF6430710569F080F06630710509F422
:100C90008FCFF4CFE42F4B2F592F8ACFE42F412F42
:100CA00087CFEB2F542F492F83CF4B2F5D2DE12F73
:100CB0007FCF80E00895F894E82FE295EF70F0E0A0
:100CC00031A1282F2F7081E090E001C0880F2A9574
:100CD000EAF7982F9095932391A392A1892B82A351
:100CE000789408959091050292FF06C0282F2871EC
:100CF0002830F9F4877F846093FF06C0282F28717D
:100D00002831F1F4877E84612091060220FF06C01D
:100D1000382F38713830D9F4877F816021FF06C0C1
:100D2000282F28712831D1F4877E816194FD877E38
:100D30000895282F24712430F9F68B7F8860DCCF4A
:100D4000282F2471243101F78B7E8861DDCF382F65
:100D50003171313019F78E7F8860E0CF282F2171F3
:100D6000213121F78E7E8861E1CFCF93DF93EC01B3
:100D70008238910581F1D8F58133910509F498C045
:100D800020F58932910509F488C08A9709F497C043
:100D9000C11521E5D20708F0B1C0C11530E5D30770
:100DA00008F0F9C0CF3BD10508F090C0C83AD10592
:100DB00008F0E6C0C53AD10508F0DAC0C430D10564
:100DC00020F5C130D10509F145C08533910509F4FD
:100DD0005FC0C997E9F680910502837009F029C1C7
:100DE0008091060283FF11C0C9E2D0E00EC0833EAD
:100DF000910599F170F4803E910501F1823E9105D3
:100E000039F68091050282FD21C0CE01DF91CF919C
:100E10000895863E910561F1873E910571F1843E0A
:100E2000910509F0B5CF8091060281FFEECF809148
:100E30000502C7EED0E084FD0DC0E7CF809105022A
:100E400080FD33C09091060290FFDFCFC3EED0E06B
:100E500084FFDBCFD0E0C0E0D8CF8091050282FDD7
:100E6000E5C09091060290FDE4C084FFCECFF2CFA2
:100E70008091050283FDDDCFC8CF8091050283FDFF
:100E8000DBC09091060291FFF0CFC4EED0E0BDCF61
:100E90008091050285FFB9CFA7CF8091050285FD1E
:100EA000CEC08091060283FFB0CFC9E3D0E0ADCFC2
:100EB0008091050286FFA9CFCAE2D0E0A6CF80913B
:100EC000050286FFA2CFC1E3D0E09FCFC11540E26B
:100ED000D40760F4C11581E0D80708F096CFCE01A1
:100EE000805E9109089708F490CFB4CFC11520E433
:100EF000D20708F4AFCFDF70D06A87CFC11534E5D1
:100F0000D30778F4C11543E5D40708F06DC0C115C7
:100F100082E5D80708F054C0DC2FCC27C16FD06A17
:100F200074CFC1152AE5D20778F4C11539E5D30786
:100F300008F06EC0C11548E5D40708F48BCFDC2F4C
:100F4000CC27C06FD06A61CFCE01905681159042F8
:100F500008F080CF8D2F8F710E94720690E0982F3D
:100F6000882788279F719C012C2BE901D0624DCFE7
:100F7000C55AD0E0CB5DDE4FC881D0E0D06445CF0C
:100F8000C85AD0E0CC0FDD1FC85DDE4F0990D88174
:100F9000C02DD4643ACF2C2F26952695237040E29D
:100FA000249F900111248C2F8370C1E0D0E002C0F7
:100FB000CC0FDD1F8A95E2F7C22BD32BDD6825CF3E
:100FC000CE018370992721E030E002C0220F331F49
:100FD0008A95E2F7C695C69580E2C89FE001112484
:100FE000C22BD32BDC6811CFCE018370992721E06F
:100FF00030E002C0220F331F8A95E2F7C695C695EE
:1010000040E2C49FE0011124C22BD32BDA68FDCE4D
:101010008C2F8F700E94720634E0D695C7953A9552
:10102000E1F7CF709C2FEC01D069EFCEC2EED0E09B
:10103000ECCEC0EED0E0E9CEC6EED0E0E6CEC5E321
:10104000D0E0E3CE8091F0019091BF01981301C0F0
:1010500008958F5F8770FACF973080F5883070F5EC
:1010600048E0949F90011124820F932F911D682FC7
:10107000677023E0969587952A95E1F7FC01EE0FBE
:10108000FF1FE80FF91FEC55FE4F50E040E080E0F5
:10109000219130E0062E02C0369527950A94E2F79A
:1010A00021703327042E01C0220F0A94EAF7822B05
:1010B0004F5F5F4F4330510559F7089580E0089521
:1010C000973098F5883088F548E0949F9001112476
:1010D000820F932F911D282F277041E001C0440FEC
:1010E0002A95EAF723E0969587952A95E1F7FC0182
:1010F000EE0FFF1FE80FF91FEC55FE4F90E080E068
:1011000070E05191DF0111979B01082E02C03695C6
:1011100027950A94E2F72170219525272423252776
:101120002C9301968330910561F708959C013A95BF
:1011300021153F4150F5FC01EE27F170BC016627F7
:101140007270AC01442754709C012227387094FFC0
:101150000EC080E1EF2B09F480E0672B09F080627C
:10116000452B09F08064232B89F08068089581E085
:10117000EF2B09F480E0672B09F08260452B09F022
:101180008460232B19F08860089580E0089580938F
:1011900067027093690260936802809178028430DC
:1011A000F9F48093E9008FEF9091E800815095FD6C
:1011B00006C095ED9A95F1F700008111F5CF809169
:1011C000E80085FF0DC050E040E063E070E087E696
:1011D00092E00E942F048091E8008E778093E800CF
:1011E0000895BC0184E00E94C7080895BC0183E013
:1011F0000E94C7080895CF93DF93EC0181E08093AC
:10120000E9008FEF9091E800815095FD06C095EDC3
:101210009A95F1F700008111F5CF8091E80085FFE4
:1012200014C050E040E068E070E0CE010E942F045E
:101230008091E8008E778093E80088E0FE01AEE6BA
:10124000B2E001900D928A95E1F7DF91CF91089578
:1012500081E08093E00080E28093D8001092C90082
:101260008FE19EE40197F1F700C0000087E090EB6A
:10127000DC018093830290938402A0938502B09353
:10128000860288E19CE00FB6F894A89580936000F0
:101290000FBE90936000FFCF8091530280FD0AC083
:1012A000E9E2F2E0118210821282339652E0E335D5
:1012B000F507C1F7869A31B33F7B21B320644FB75E
:1012C000F89489E292E0FC015191CF0168E021BBE2
:1012D000000000C057FF31BB550F000000C000C028
:1012E00000C031BB00C06A9591F7F2E083359F07DB
:1012F00051F74FBF8FE594E00197F1F700C0000070
:101300000895EF92FF920F931F93CF93DF938C0179
:10131000C9E2D2E0F12CE12CF801948160915502F0
:1013200080915402F7E0EF16F104ECF49923E9F010
:101330009E01409156020E94C3052FEFE21AF20A65
:1013400023968EE0E816F10439F70E944C09F80163
:10135000848190E00196817099278483CDB7DEB7B0
:10136000E6E00C94AC22992319F39E0140E0E3CF10
:10137000B0E0A0E0EEEBF9E00C948A22EC014C81A5
:10138000042F10E09801D8010E945B229B01AC0160
:101390000E9471224B015C01E0E2F0E0E01BF10BE6
:1013A000A5E5B0E0AC019B010E9471226B017C01BC
:1013B0009F01DF010E9453229B01AC010E947C220D
:1013C0009B01AC01280D391D4A1D5B1DC701B601EB
:1013D0000E942422F22E822F90E039E23F1598F1EC
:1013E00043E0249F9001112435952795122F1095E5
:1013F00099E2C92E92E0D92E00E085E5E82EEF189B
:101400008E2D01FD8F2D9601412F609155020E9476
:10141000C3050F5F53E0C50ED11C0E3089F70E9443
:101420004C099C8181E0992319F0903219F48FEFD7
:101430008093190180911901890F8C83CDB7DEB794
:10144000ECE00C94A62225E530E0A901481B590BDD
:10145000CA019A01220F331F280F391F37FFC4CF4B
:101460002F5F3F4FC1CF0F931F93CF93DF93C9E2FD
:10147000D2E0FE01118210821282339682E0E335BF
:10148000F807C1F710E000E080912702082E000C59
:10149000990B081719078CF180911801082E000C80
:1014A000990B801791074CF19E0140915602609173
:1014B0005502809154020E94C3050F5F1F4F23966F
:1014C0000E30110509F70E944C0980911701909187
:1014D0002702980F9093270220911801280F20933C
:1014E0001801121614F49D301CF081958093170199
:1014F000DF91CF911F910F910895198218821A825E
:10150000DCCFB0E0A0E0E7E8FAE00C948D22FC012B
:101510008281DD24DA9480FD02C0DD24D39409E2C7
:1015200012E0D0E0C0E02EE0B22EF801118210826D
:10153000128294E0E92EF12CC12C809126028C0DB0
:101540008F30C4F16B2D0E94EE21892F082E000CE4
:10155000990B8C179D0791F4809156028E9DA001E6
:101560008F9D500D11245595479555954795980198
:1015700060915502809154020E94C305CD0CF1E0A8
:10158000EF1AF108D1F621960D5F1F4FCE30D1052D
:1015900061F60E944C098091260291E0D91210C098
:1015A00081110CC08DE080932602CDB7DEB7E9E053
:1015B0000C94A92287FFCACF825FC8CF8150F3CF96
:1015C00090E00196BE010E941022EDCFEF92FF92B3
:1015D0001F93CF93DF93EC0189E2E82E82E0F82E8F
:1015E00010E08C8197014091560260915502810F65
:1015F0000E94C3051E5E83E0E80EF11C1C3F89F7C4
:101600000E944C099A818C8190FF08C08F5F8C8367
:10161000DF91CF911F91FF90EF9008958150F7CF08
:101620009091530290FF0CC0E9E2F2E08183608365
:101630004283339692E0E335F907C1F70E944C09E3
:101640000895A3E0B0E0E7E2FBE00C9492228C0165
:101650008091280281110AC09E012F5F3F4F4FEFFA
:101660006FEF0E94C3058A8180932802F80164818C
:10167000613069F08091280240E0662361F040E02B
:10168000623011F44091280280E060E004C0609173
:10169000280240E080E00E94100BF801848190E075
:1016A000019663E070E00E94102284832396E4E0B8
:1016B0000C94AE22A3E0B0E0E0E6FBE00C949422B0
:1016C0009091530290FF0AC09E012F5F3F4F0E94EE
:1016D000C3054B8169818A810E94100B2396E2E049
:1016E0000C94B022CF93DF93EC01E3E5F2E0438169
:1016F00062818C810E945A0B8C818F5F8C83DF9179
:10170000CF910895CF93DF93EC01EC81F0E0ED569B
:10171000FC4F4491E3E5F2E0628181810E945A0B23
:101720008C818F5F8C83DF91CF910895CF93DF936E
:10173000C7E7D1E060E0CE010E9405232196C115E4
:1017400084E0D807B9F7DF91CF9108951F93CF9325
:10175000DF93122F8330E0F46730D0F44830C0F4C8
:1017600090E1699FE001112450E0440F551FC40F20
:10177000D51F90E7899FC00DD11D1124632FCE0185
:1017800087960E940523612FCE0188960E9405232B
:10179000DF91CF911F9108958F929F92AF92BF9248
:1017A000CF92DF92EF92FF921F93CF93DF938090BF
:1017B0001A0190901B0181E090E090931B018093AF
:1017C0001A0183E9C82E84E0D82ED0E07601C0E06B
:1017D00014C0F50125913491412F6C2F8D2F0E945B
:1017E000A60B82E0A80EB11C1F5F183091F780E1B4
:1017F000E80EF11CCF5FC73019F0570110E0E9CFB8
:10180000DF5F80E7C80ED11CD33001F790921B0137
:1018100080921A01DF91CF911F91FF90EF90DF909E
:10182000CF90BF90AF909F908F900895CF93C82F87
:101830006FEF81116FE983E290E00E9405236FEF63
:10184000C1116DEE84E290E00E9405236FEFC1119B
:1018500069E085E290E00E940523CF91089580E041
:101860000E94160C60E086E290E00E9405230E9430
:10187000CC0B0E94960B81E00E94160C08950F93EA
:101880001F93CF93DF93833030F5673020F54830D6
:1018900010F520E1629F8001112450E0440F551F94
:1018A000040F151F30E7839F000D111D1124C8017F
:1018B00087960E94F122C82FD0E0DC2FCC27C801E8
:1018C00088960E94F1229E01282BC901DF91CF91B9
:1018D0001F910F91089590E080E0F8CF462F20915E
:1018E0005A0230915B02232B99F4703F39F4603F28
:1018F00079F480915802909159020895833040F410
:10190000773030F4683020F4672F0E943F0C089540
:1019100090E080E00895CF92DF92FF920F931F93A3
:10192000CF93DF936C01009182028091FA01082B22
:10193000C7E0D0E010E0FC2EC8010C2E02C0959547
:1019400087950A94E2F780FD0CC02197A0F7F12C4F
:101950008F2DDF91CF911F910F91FF90DF90CF904E
:101960000895B6018C2F0E946E0C0E94B506019757
:1019700061F3EECFCF93DF93EC010E948B0CBE019D
:101980000E946E0C0E94B506DF91CF910895FC0174
:1019900083819481892B29F08081918189238F3FD4
:1019A00051F480E00895843FE1F717C0883EA8F025
:1019B000813FB9F712C0808191810E94BA0C929543
:1019C0009F70963099F358F4925F9F70923048F769
:1019D000803F19F040F7883E20F781E008959A5F34
:1019E000F4CF83E290E00E94F1228F3989F484E2FF
:1019F00090E00E94F1228D3E59F485E290E00E9431
:101A0000F12291E0893009F090E0892F81700895EA
:101A100080E0FCCF60915302669570E04BE050E0AF
:101A20008CE091E00E94D022892B19F481E0809310
:101A300025020E94690590931F0280931E0208955B
:101A4000CF92DF92EF92FF926B017C010E94B4056E
:101A5000B701A60188E090E00E941723FF90EF9065
:101A6000DF90CF900895A3E0B0E0E9E3FDE00C94AF
:101A70008722F82E762EE42E622E9091530290FF4C
:101A800029C0E92FE695AE2FB0E0AB59BE4F8C913F
:101A9000809324029E7F923009F59E012F5F3F4F75
:101AA0008F2D0E94C3054B8169818A810E94100B92
:101AB000F092540270925502E0925602662051F064
:101AC0006091530270915402809155029091560298
:101AD0000E94200D2396EFE00C94A322823019F48B
:101AE000E0905602E5CF863019F4F0905402E0CF32
:101AF0008930D9F38931E1F6E9518E2F8170582E62
:101B0000E695F0E0E257FC4FE4910E2F10E089E2F9
:101B1000C82E82E0D82EB12CA12C9EE0892E912CCB
:101B2000C501B4010E94FC218F2D511013C0860FF6
:101B300096014E2D672D0E94C305A00EB11E83E0B5
:101B4000C80ED11C83E5C81682E0D80649F70E946A
:101B50004C09AECF861BECCFE3E5F2E0438128E0F1
:101B6000421B08F440E021E0628181810E94330D34
:101B70000895E3E5F2E0438128E0420F08F44FEFD7
:101B800021E0628181810E94330D0895E3E5F2E056
:101B9000628128E0621B08F460E021E043818181DA
:101BA0000E94330D0895E3E5F2E0628128E0620FC0
:101BB00008F46FEF21E0438181810E94330D089585
:101BC000E3E5F2E0818121E04381628188500E9457
:101BD000330D0895E3E5F2E0818121E043816281E4
:101BE000885F0E94330D089580915702882319F071
:101BF00081508093570260915302709154028091FA
:101C00005502909156020E94200D0895809157022E
:101C1000833018F48F5F8093570260915302709164
:101C2000540280915502909156020E94200D089511
:101C30009091530290FF2CC0917081112AC0926044
:101C400090935302662351F06091530270915402B5
:101C500080915502909156020E94200D609153028E
:101C6000669570E04BE050E08CE091E00E94D0225D
:101C7000892BB1F01092250281E08093210220E0AF
:101C80004091560260915502809154020E94330D9A
:101C90000895853210F09864D3CF880F982BD0CF59
:101CA0000E940A0DE9CF809153028695815009F474
:101CB00084E261E00E94180E089580915302869597
:101CC0008F5F853208F081E061E00E94180E089570
:101CD0009091530290FF08C09695981728F0961798
:101CE00018F40E945D0E089561E00E94180E089598
:101CF000E3E5F2E083E0808311828FEF82838383C8
:101D0000148260817181828193810E94200D0895E7
:101D100068EE7EEF90E080E00E94232360E082E0A6
:101D200090E00E94052360E083E090E00E9405239C
:101D30001092FA0160E084E090E00E94052364E0E4
:101D400082E290E00E94052360E085E090E00E943E
:101D5000052360E086E090E00E9405236FEF87E0B6
:101D600090E00E94052340E050E0BA0188E090E056
:101D70000E94172360E08DE090E00E94052340E080
:101D800050E0BA0188E190E00E94172360E087E10B
:101D900090E00E94052340E050E0BA018CE190E021
:101DA0000E94172370E060E080E290E00E9423230D
:101DB00040E050E0BA0188E190E00E94172380E003
:101DC0000E94160C0E942F0C40E050E0BA018FE0F8
:101DD00090E00E94172340E050E0BA0183E190E0D8
:101DE0000E941723089580916B029091F901892B2D
:101DF00080939C0148E050E061EF71E08CE991E054
:101E00000E94DD22892BA9F088E0ECE9F1E0A1EF46
:101E1000B1E001900D928A95E1F7E0915E02F091B8
:101E20005F02309731F00280F381E02D8CE991E080
:101E30000995089590E080E00E948B0590E080E095
:101E40000E9475051092F9010E94F30E0895809387
:101E500082020E941A0F089580918202982F967034
:101E6000963021F488600E94270F0895877FFBCF6A
:101E700021E030E001C0220F8A95EAF72095809199
:101E8000820282230E94270F089521E030E001C0E2
:101E9000220F8A95EAF780918202822B0E94270FF7
:101EA00008958093FA010E941A0F0895EEE9F1E077
:101EB00086E0DF011D928A95E9F70E941A0F0895C6
:101EC000AAE2B0E0E6E6FFE00C9493228AE792E013
:101ED0002091F100DC012D93CD01B2E082389B0707
:101EE000B9F780917B02833009F472C0B8F4813075
:101EF00009F449C0823009F4B5C08091E80083FF3D
:101F000098C280917A0290917B029A3008F091C237
:101F1000E92FF0E0E55CFC4D0C9446228A3009F490
:101F200090C08B3009F471C0893039F780917A0202
:101F3000813219F780917E0290917F02009711F013
:101F40000297D9F68091E800877F8093E80080911E
:101F5000E80082FF38C09091F3008091F200029770
:101F600031F48091F100813011F0863021F48091BC
:101F7000F10080936D028091E8008B778093E800F8
:101F80000E945904BACF80917A02813A09F0B5CF04
:101F90008091E800877F8093E80080917E02909195
:101FA0007F02892B61F468E08EE692E070E00E9487
:101FB00005058091E8008B778093E8009ECF60E074
:101FC00090E080E0F3CF809178028111C0CF95CF6F
:101FD00080917A02813A09F090CF80917E029091AF
:101FE0007F02892B09F089CF8091E800877F809359
:101FF000E8008091E80080FFFCCF80911C01809375
:10200000F1008091E8008E77B9CF80917A02813219
:1020100009F073CF80917E0290917F02892B09F0A5
:102020006CCF8091E800877F8093E8000E9459047C
:1020300080917C0280931C0110926B020E94560FCB
:102040005CCF80917A02813209F057CF8091E8000D
:10205000877F8093E8000E94590480917D028093DD
:102060006C024BCF80917A02813A09F046CF809181
:10207000E800877F8093E8008091E80080FFFCCF34
:1020800080916C02BCCF803899F0823809F0D1C1C0
:1020900080917E028F70873008F0CBC18093E90079
:1020A0008091EB0085FB882780F91092E90006C03B
:1020B0008091760290917702911182609091E80070
:1020C000977F9093E8008093F1001092F100809147
:1020D000E8008E77AAC1882309F498C1823009F0FC
:1020E000A8C180917C0281119BC180917E028F707A
:1020F0002FEF280F263008F09CC18093E900209133
:10210000EB0020FF8DC1933031F48091EB008062B1
:102110008093EB0085C19091EB0090619093EB0070
:1021200021E030E001C0220F8A95EAF72093EA000F
:102130001092EA008091EB008860EACF811179C1AA
:1021400010917C021F778091E3008078812B80932F
:10215000E3008091E800877F8093E8000E945904A3
:102160008091E80080FFFCCF8091E300806880933D
:10217000E30082E0111183E0809378025AC1805815
:10218000823008F056C120917C0230917D022C3DB6
:10219000E3E03E07A1F583E08A838AE289834FB7B3
:1021A000F894DE01139620E03EE051E2E32FF0E0E8
:1021B00050935700E49120FF03C0E295EF703F5F1A
:1021C000EF708E2F90E0EA30C0F0C7968D939D930C
:1021D0002F5F243159F74FBF8091E800877F8093AC
:1021E000E8006AE270E0CE0101960E940505809148
:1021F000E8008B778093E8001CC1C096E7CF809100
:102200007E0290917F02432F55274330510509F4F8
:102210004AC078F54130510509F485C08BE590E05E
:10222000E3EEF5E04230510509F003C12091E800EA
:10223000277F2093E800209180023091810282174D
:10224000930708F49C0140E02115310509F070C0A6
:1022500041116EC08091E80082FDC9CF8091780263
:10226000882329F2853019F28091E80083FFF2CFAC
:10227000BECF4132510509F447C04232510509F041
:10228000D8C08330910508F0D4C0FC01EE0FFF1FC9
:10229000E357FE4F0190F081E02D86579E4FDC0101
:1022A0008C9190E01DC0332721303105E9F02115D4
:1022B000310579F022303105F9F02330310509F08C
:1022C000B8C0E0E5F6E0E4918E2F90E0E0E5F6E0BE
:1022D00007C0E6E9F6E0E4918E2F90E0E6E9F6E04B
:1022E000009709F4A6C0A2CFE8E8F6E0E4918E2FAB
:1022F00090E0E8E8F6E0F4CFEEE6F6E0E4918E2F29
:1023000090E0EEE6F6E0ECCF8330910508F091C066
:10231000880F991FFC01ED56FE4F0190F081E02DD2
:1023200089E090E083CF82E190E0EEE3F6E07ECFBB
:1023300080917802882309F45ACF853009F457CF69
:102340008091E80083FD53CF8091E80082FD82CF29
:102350008091E80080FF78CF9091F3008091F200A7
:102360002115310519F08830910550F041E00897AA
:1023700009F040E08091E8008E778093E80064CF18
:1023800044914093F1003196215031090196E8CFF4
:10239000803809F04EC08091E800877F8093E80084
:1023A000809179028093F10092CE811142C0109108
:1023B0007C021230F0F58091E800877F8093E8007E
:1023C000109379020E945904112311F084E005C092
:1023D0008091E30087FDFACF81E08093780242E0AC
:1023E00061EC81E00E94780442E261EC84E00E94AA
:1023F000780442E261EC82E00E94780442E260EC00
:1024000083E00E9478048091780213C080917C025E
:10241000813079F481E0933009F080E08093770295
:102420001092E9008091E800877F8093E8000E9485
:1024300059048091E80083FF0AC08091E800877FFB
:102440008093E8008091EB0080628093EB00AA9675
:10245000E3E00C94AF2210926B020E94560F2FEF14
:1024600084E39CE0215080409040E1F700C00000F0
:1024700088E19CE00FB6F894A895809360000FBEA9
:1024800090936000FFCF882341F080959091F901EF
:1024900089238093F9010E94F30E0895882339F06F
:1024A0009091F901982B9093F9010E94F30E0895F1
:1024B000882341F0809590916B02892380936B0271
:1024C0000E94F30E0895882339F090916B02982BA7
:1024D00090936B020E94F30E08958823C1F19CEF44
:1024E000980F913A78F4EEE9F1E09191891303C0E5
:1024F000DF0111971C9241E0E43AF407B1F70E9422
:10250000F30E089590E2980F983088F4877021E0D8
:1025100030E0A90102C0440F551F8A95E2F7CA01B5
:10252000809590916B02892380936B02E8CF9BE5A5
:10253000980F933028F490E080E00E948B05089576
:10254000885A873120F490E080E00E947505089554
:102550000F931F93CF93C82F882349F18CEF8C0FD3
:10256000813AB8F50EE911E084EA91E0F801219191
:10257000C21709F121E0E43AF207C9F7EFEF80E072
:10258000D8019D918D01C91781F0EF3F19F4911188
:1025900001C0E82F8F5F863099F7EF3F31F00E2EA4
:1025A000000CFF0BE456FE4FC2830E94F30ECF9146
:1025B0001F910F910895EEE9F1E02191C21303C03C
:1025C000DF0111971C928E179F07B9F70E94F30E37
:1025D000D5CF80E28C0F883068F4C77021E030E0FE
:1025E00001C0220FCA95EAF780916B02822B80937B
:1025F0006B02DBCFEBE5EC0FE33040F4F0E0EB5D9A
:10260000FE4F808190E00E948B05D1CFC85AC73120
:1026100070F6EC2FF0E0EE0FFF1FE85DFE4F8081BB
:1026200091810E947505C3CF1F93CF93DF93182F1D
:10263000EB010E94A812209739F4812F0E946D129D
:10264000DF91CF911F9108958FE99FE00197F1F7F6
:1026500000C000002197EFCFB0E0A0E0E2E3F3E19B
:102660000C948C22EC018AE0A82E2881222309F404
:102670009FC0213009F03FC099818A81913051F487
:10268000229670E060E0893311F460E570E00E940A
:10269000141305C0923029F422960E94A8122196A4
:1026A000E4CF933021F422960E946D12F8CF94303B
:1026B00011F02196F4CF229630E020E0AE014F5F7A
:1026C0005F4F8053990B8A30910550F021503109AA
:1026D00030F38FE99FE00197F1F700C00000F6CFDB
:1026E000A29EB001A39E700D11249C01260F371FDE
:1026F0008981EA01E3CFE22FF0E0E653F94FB4908D
:10270000822F86958695869590E0FC01E654F94FD8
:10271000E4902770F12C022E02C0F594E7940A94FD
:10272000E2F731E0E322FF24FC01E655F94FC490C3
:10273000D12C022E02C0D594C7940A94E2F731E05E
:10274000C322DD24FC01E656F94F049110E002C0DB
:10275000159507952A95E2F701701127E114F10408
:1027600019F081EE0E94A812C114D10419F086EE6E
:102770000E94A81289E370E060E0B81202C060E530
:1027800070E08B2D0E941413C114D10419F086EE51
:102790000E946D12E114F10419F081EE0E946D1295
:1027A0000115110509F47BCF70E060E08CE26FCF7A
:1027B000CDB7DEB7EAE00C94A822A5E0B0E0E3EEE6
:1027C000F3E10C948D226C01FC0183819481892BAF
:1027D00031F08081918189238F3F09F080C3259654
:1027E000E9E00C94A9220E948B0C182F682F898194
:1027F0009A810E94600869817A81812F0E946E0C03
:102800008C01F6019281992309F419C39801225190
:102810003F452031310508F0FFC28FEF93E00E9461
:10282000F1228111DCCF025197E7E92EFF24F394C6
:10283000011134C019821A821B821C82BB24BA94F3
:1028400087010F5F1F4FC7010E94F12289831A82FF
:10285000882329F2813009F082C0670142E0C40E6A
:10286000D11CC8010E94F122082F8A83882309F411
:10287000B6CFC6010E94F122182F8FEF800F833050
:10288000E0F4670153E0C50ED11C1B83112321F036
:10289000CE0101960E942C137601D2CFE114F4E010
:1028A000FF0609F49CCFC7010E94F122811101C0EB
:1028B00001502FEFE21AF20ABBCF8BEF800F83306B
:1028C00038F5C70103961B836C01112329F36701B7
:1028D000E4E0CE0ED11C0E94F1228C838823E1F229
:1028E000EB80FC80F1E0EF16FFEFFF0610F0FE2C0E
:1028F000EE24063049F0073019F0C7010E94F5199F
:10290000C7010E94BD19C8CFC7010E94F519C4CFE5
:10291000043011F6670124E0C20ED11CC7010396F2
:102920000E94F122112309F45ACF882309F457CFCA
:102930008150990BB89E9001B99E300D1124412F02
:102940004150550BCA01820F931F019708F4A4CF81
:10295000EFE9FFE03197F1F700C00000F6CFCE01BC
:1029600001960E942C13680197CF81E00E94450FC9
:1029700003C081E00E94380F0E942C0F30CF82E00C
:10298000F5CF82E0F7CF043CECE51E0709F493C0D5
:1029900040EE5DE06AEE7DE0053CFCE51F0709F0D6
:1029A00075C20E94AE051BCF093C2CE5120709F445
:1029B00091C070F4073C5CE5150709F486C043ED4F
:1029C0005DE066EC7DE0083CECE51E0751F35EC27D
:1029D0000A3CFCE51F0709F482C044EF5DE066E0B5
:1029E0007EE00B3C2CE51207E1F250C2013D4CE5C4
:1029F000140709F487C0B0F40E3C8CE5180709F4FD
:102A00007BC008F476C00F3CFCE51F0709F477C0D3
:102A10006EE089E0003D2CE5120709F037C20E9404
:102A2000680EDDCE043D4CE5140709F471C078F45E
:102A3000023D8CE5180709F468C061E088E1033DB8
:102A4000ECE51E0709F022C20E94180EC8CE053D13
:102A5000FCE51F0709F45FC00D35100709F4BFCE70
:102A600015C28091530280FF1BC08E7F809353025A
:102A700060915302709154028091550290915602D8
:102A80000E94200D109225024FEF50E782E0415046
:102A900050408040E1F700C000000E944C099FCEEA
:102AA00081608093530261E08695CECF43E55EE07E
:102AB0006DE57EE076CF4DE55EE063E57EE071CFCB
:102AC0004AEE5DE060EE7DE06CCF46EC5DE063EDEC
:102AD0007DE067CF4CEA5DE069EB7DE062CF49EBDA
:102AE0005DE06CEA7DE05DCF46E05EE064EF7DE0B6
:102AF00058CF61E081E0A8CF65E082E090CF68E048
:102B000086E08DCF64E18FE08ACF67E185E187CFF2
:102B100062E289E184CF61E083E296CF073AEDE596
:102B20001E0709F48AC101151C4509F0AFC11092B6
:102B30006B020E94560F2FEF44E35CE021504040AF
:102B40005040E1F700C000000E942809C8010E941F
:102B50002C08F82EA9C1092F0F70907F11F0029553
:102B6000007F812F2223C9F0002369F090E2910FAA
:102B7000983010F011110BC080916B02082B00935C
:102B80006B020E94F30E812F0E94A81217C0809141
:102B9000F901082B0093F901F4CF0E946D12002374
:102BA00069F00095105E183010F0B11012C08091DD
:102BB0006B02082300936B020E94F30EE8E0EE1A0A
:102BC000F108F4E0EF16F10408F009CE0E94A10527
:102BD00006CE8091F90108230093F901EDCF892FEA
:102BE0008F70907F903211F08295807FF1E0BF125C
:102BF0000CC0222329F0363008F70E946312DECF82
:102C00003530E0F60E945812D9CF222341F0332309
:102C1000A1F340FFB8CF4F70F6014583EECF3323C9
:102C200089F3193349F4FFEF27EE43E0F1502040D8
:102C30004040E1F700C00000812F0E946D12BECF1E
:102C4000892F86958695837061F0813009F0B6CF23
:102C5000812F9370211102C090E080E00E947505E1
:102C6000ADCF812F9370211102C090E080E00E94CF
:102C70008B05A4CF892F8370A1F521119FCF812FC0
:102C8000829586958770880F880F412F4F70082E88
:102C900001C0440F0A94EAF7212F207114FF07C0E6
:102CA0002FE030E001C0220F8A95EAF72095969533
:102CB00096959370923081F0822F842B933030F46C
:102CC0008091FA01913029F0242B82230E94510F28
:102CD00075CF842B822BFACF242B8091FA01822787
:102CE000F5CF8695222311F0892F8170882309F46E
:102CF00065CF812F829586958770880F880F412F29
:102D00004F70082E01C0440F0A94EAF7212F20715A
:102D100014FF07C02FE030E001C0220F8A95EAF7C8
:102D20002095969596959370923081F0822F842B02
:102D3000933030F480918202913029F0242B822349
:102D40000E94270F3BCF842B822BFACF242B80911C
:102D500082028227F5CF092F0F70222329F0802FBE
:102D60000E94450F812F49CF812F0E945812802F3A
:102D70000E94380F23CF812F51EF151789F151177A
:102D800050F0E0EF1E17B9F02223B1F13111FBCE64
:102D9000892F8F7129C0F2EF1F1749F143EF1413E8
:102DA000F3CF80E0222361F29F7181E001C0880FA0
:102DB0009A95EAF7C5CF222379F0353008F0FECE98
:102DC000292F2F7181E090E001C0880F2A95EAF742
:102DD000909182028927B4CF363008F0EFCEF0CF41
:102DE000892F8F71222321F20E94450FE7CE892F70
:102DF0008F712223C9F3BCCF332359F0893309F0F3
:102E00001BCF5FEF87EE93E0515080409040E1F799
:102E100011CF892F8F71ACCF00312FE5120709F444
:102E2000A4CD01314FE5140709F4A9CD0E3D2CE5E1
:102E3000120709F073CE0E94880E0E942B120031F7
:102E40005FE5150709F495CD01318FE5180709F401
:102E500098CD80916B0282720C3C4CE5140709F40A
:102E600043CE08F0C3CD063CECE51E0709F428CE9E
:102E700008F09ACD033C2CE5120709F417CE08F0B0
:102E800082CD023C5CE5150709F4EBCDF60100812B
:102E90001181992309F45ACEC8010E948B0CF82E97
:102EA000682FC8010E946008B8018F2D0E946E0C27
:102EB0000E94B506182FB82EF60122814581342FC5
:102EC00032953F70892F82958F70E82EF12C8C30CF
:102ED00008F074CEF701EB5BFC4D0C94462285E0C4
:102EE000DE01119601900D928A95E1F7F60122819B
:102EF00089819A81211177CC0E942C08182F7BCCD4
:102F00001F93CF93DF938091BE01807F09F049C06A
:102F10008091BB01882309F444C08091F001D091D5
:102F2000BF016091B9017091BA01A091BC01B0914B
:102F3000BD01C62FC72316E0D81799F190E010976E
:102F400011F0CF3F19F401968770F6CF189F9001CA
:102F5000199F300D1124F901E054FE4F41814713B0
:102F6000F2CF40814613EFCF42814111ECCF438134
:102F700054814A1B5B0B483C510528F78091BE01E8
:102F80008F7080618093BE01F901EB53FE4F808109
:102F90008F708061808389EB91E00E94DD130E9435
:102FA0002208DF91CF911F910895A1E1B0E0EBEDF0
:102FB000F7E10C948C228C0185E0F801DE011D966E
:102FC00001900D928A95E1F7F801E28089EBA82E35
:102FD00081E0B82E6091BC017091BD016115710551
:102FE00009F426C19091B9014091BA01892F842337
:102FF0008F3F09F41DC120813181C380D480F090BE
:10300000BB01F601E61BF70BFF2009F4DCC0809141
:10301000BE01582F507FE83CF10508F09FC05111C8
:103020006BC0FE2C431314C0921312C0E11010C0E9
:103030008F7080618093BE01C5010E94DD13809175
:10304000BE01F80185838F2D6196EAE00C94A822D9
:10305000C114D10429F0822F83238F3F09F003C1CB
:1030600080E0F82FF170DF2E80FF3CC08091F001EE
:103070004091BF0156E0841315C02D873E878D8592
:103080009E850E94BA0C292F22952F702230F0F0D5
:10309000243018F59F70F1F0F8019581907FD1F4FC
:1030A000D12C1EC090E0589FF001599FF00D1124C3
:1030B000E054FE4F6181361306C06081261303C0C1
:1030C0006281E6120FC001968770D5CF9F7011F014
:1030D000882331F3805E883018F3C8010E94DD1325
:1030E000FD2CB1CFEE2009F4AECF8091BE018160FE
:1030F0008093BE01F12CA7CF431306C0921304C0E6
:10310000F801EE2009F479C0C8010E94C70C882399
:1031100009F1EE20F9F08091BE01803270F020912B
:10312000B9013091BA0138872F831986DB86CA86A8
:103130008C87CE0107960E94DD1386E0F801A9EB8B
:10314000B1E001900D928A95E1F70E948017FF246B
:10315000F39479CFC8010E94DD13F9CF51110AC051
:1031600089EB91E00E94DD1386E0F50111928A95CA
:10317000E9F7C0CF43130FC092130DC0E1100BC08D
:10318000F8018583C8010E94DD1386E0F5011192E4
:103190008A95E9F758CFC8010E94C70C8823D1F25D
:1031A000EE20C1F28091BE01803238F22091B90147
:1031B0003091BA013A8329831B82DD82CC828E83CF
:1031C000CE010196B8CFE83CF105F8F6FE2CEE20D2
:1031D00009F243131FC092131DC08091BE0180FDF0
:1031E00010C0982F907F69F0F8018583903F31F0EF
:1031F000982F907F905F8F70892B8583C8010E94E4
:10320000DD1386E0F801A9EBB1E001900D928A95FB
:10321000E1F719CFC8010E94C70C81118ECF8091B0
:10322000BE0181608093BE01C8010E94DD130BCFF7
:10323000EE2009F48FCFC8010E94C70CF82E882316
:1032400009F488CF86E0F801A9EBB1E001900D9276
:103250008A95E1F78091B9019091BA010E94BA0C68
:103260000E948017F0CE81E08E25FBCEA7E1B0E072
:10327000ECE3F9E10C9493224B8B5C8B6D8B7E8B92
:103280008F8B61111092F9011A8A198A85E0FE016B
:103290007396DE011D9601900D928A95E1F786E006
:1032A000FE013D96DE01179601900D928A95E1F799
:1032B000CE0107960E94D517882359F016E0809119
:1032C000F0019091BF01891345C06796E3E00C942B
:1032D000AF2286E0FE013796DE01119601900D9235
:1032E0008A95E1F78A859B85892B41F38F819885A3
:1032F00089238F3F19F32091BF0130E0C901019666
:10330000877099274091F0014817190681F41092AF
:103310006B020E94560F1092BF011092F00186E0DE
:10332000E9EBF1E0DF011D928A95E9F7C7CF96E05E
:10333000929FD001939FB00D1124A054BE4FFE0167
:10334000319601900D929A95E1F78093BF010E940A
:103350002208B4CF819FC001112480549E4F0E9447
:10336000D517882309F4B1CF8091F00190E0019640
:10337000877099278093F001A2CFA5E0B0E0E3EC3D
:10338000F9E10C9492228C01909359028093580297
:10339000011580E21807C0F4802F0E946D12C80149
:1033A0000E9496089801205E31092830310518F0F6
:1033B0000115110531F40E9458122596E4E00C9491
:1033C000AE220E944312F9CF80EF89838A831B8249
:1033D0000E9469058160782F9D838C8349815A8181
:1033E0006B818D810E943619E8CFA5E0B0E0EBEF4C
:1033F000F9E10C9492228C01909359028093580227
:10340000011580E21807C0F4C8010E9496089801CF
:10341000205E31092830310518F00115110549F4F5
:103420000E946312802F0E94A8122596E4E00C945B
:10343000AE220E944E12F6CF80EF89838A8381E00C
:103440008B830E9469058160782F9D838C834981DD
:103450005A816B818D810E943619E7CFA7E0B0E0D9
:10346000E4E3FAE10C948B228E010F5F1F4F87E09B
:10347000F80111928A95E9F786E5C82E81E0D82EE9
:10348000F12CE12CAA24A394B12CF60181916F01B7
:103490008F3F09F443C0F894E82FE295EF70F0E015
:1034A00021A18F70A50102C0440F551F8A95E2F734
:1034B000CA01922F982B91A392A18095892382A370
:1034C000789400C0EDE5F1E0912C31E021912F3F9F
:1034D00009F470C0A22FA295AF70B0E090968C91C5
:1034E00090E02F7002C0959587952A95E2F780FDB0
:1034F00061C0832F982A330F51E0E536F50731F785
:10350000F601319780818F3F11F00E945B0680EABF
:103510008A95F1F7F801EE0DFF1D9082EFEFEE1A9C
:10352000FE0AF7E0EF16F10409F0AFCF47E050E0F4
:10353000B8018EEF91E00E94DD22892BE9F187E04E
:10354000F801AEEFB1E001900D928A95E1F781E0CC
:103550008093FD010E9469059093FC018093FB011B
:103560002091FB013091FC014FB7F89480916302E8
:1035700090916402A0916502B09166024FBF821BD8
:10358000930B0597E8F047E050E06EEF71E087E1BC
:1035900092E00E94DD22892BC1F087E0EEEFF1E09E
:1035A000A7E1B2E001900D928A95E1F781E01092D7
:1035B000FD0107C080E09ECF8091FD018111D0CF39
:1035C00080E02796EBE00C94A72280E0F0CF90E01B
:1035D00080E00E94FF22883E9E4F19F40E94F10C69
:1035E000089580E008951F920F920FB60F92112454
:1035F0002F933F934F935F936F937F938F939F93FB
:10360000AF93BF93CF93DF93EF93FF93D091E900F4
:10361000DF708091EC00C82FC17080FDC0E810926F
:10362000E9008091F000877F8093F00078940E94F9
:10363000600F1092E9008091F00088608093F000A4
:10364000CD2BCF70C093E900FF91EF91DF91CF9127
:10365000BF91AF919F918F917F916F915F914F91AA
:103660003F912F910F900FBE0F901F9018951F92B2
:103670000F920FB60F9211242F933F934F935F93A6
:103680006F937F938F939F93AF93BF93EF93FF932A
:103690008091E10082FF09C08091E20082FF05C0B5
:1036A0008091E1008B7F8093E1008091DA0080FFC0
:1036B00024C08091D80080FF20C08091DA008E7FE6
:1036C0008093DA008091D90080FF9DC080E189BDA0
:1036D00082E189BD09B400FEFDCF81E080937802CC
:1036E00080916A02811109C00E94DF030E94AA042E
:1036F0008091E20084608093E2008091E10080FF8D
:1037000017C08091E20080FF13C08091E2008E7F9D
:103710008093E2008091E20080618093E2008091DA
:10372000D80080628093D80019BC85E0809378022D
:103730008091E10084FF2BC08091E20084FF27C0CC
:1037400080E189BD82E189BD89B5982F917080FFA4
:10375000FBCF8091D8008F7D8093D8008091E100CD
:103760008F7E8093E1008091E2008F7E8093E20063
:103770008091E20081608093E20080917902882349
:1037800009F447C084E080937802809178028091A8
:10379000E10083FF27C08091E20083FF23C0809176
:1037A000E100877F8093E10082E0809378021092AD
:1037B00079028091E1008E7F8093E1008091E200A8
:1037C0008E7F8093E2008091E20080618093E2002E
:1037D00042E060E080E00E9478048091F000886020
:1037E0008093F000FF91EF91BF91AF919F918F91E6
:1037F0007F916F915F914F913F912F910F900FBEED
:103800000F901F90189519BC1092780210926A02BE
:1038100074CF8091E30087FD93E090937802B5CF59
:1038200078941F921FB61F9211248F939F93AF938A
:10383000BF938091630290916402A0916502B09160
:1038400066020196A11DB11D8093630290936402EC
:10385000A0936502B0936602BF91AF919F918F9143
:103860001F901FBE1F9018951F921FB61F92112404
:103870008F939F93AF93BF9380916202811113C086
:103880008091630290916402A0916502B0916602FA
:103890004196A11DB11D8093630290936402A09391
:1038A0006502B0936602BF91AF919F918F911F9077
:1038B0001FBE1F901895CDB7DEB7E2970FB6F894EC
:1038C000DEBF0FBECDBF85B7806885BF85B7806876
:1038D00085BF84B7877F84BF0FB6F894A895809181
:1038E0006000886180936000109260000FBE80E8E5
:1038F00090E00FB6F89480936100909361000FBE42
:1039000089E596E090939B0180939A010E94DF03E2
:103910000E94AA048091E20084608093E20078947F
:10392000809178028823A1F01091E9001F70909196
:10393000EC00892F817090FD80E8182B1092E9002F
:103940008091E80083FD0E94600F1F701093E900D2
:1039500082E084BD93E095BD9AEF97BD80936E00A1
:103960000E94F10C811102C00E942F0C06E511E0AB
:103970006DE5E62E61E0F62ED8018D918D018F3F29
:1039800011F00E945B06E016F106B1F70DE511E0BB
:1039900055E6E52E51E0F52EF80181918F018F3F1C
:1039A00011F00E945B06E016F106B1F787E0E7E14F
:1039B000F2E0DF01282F1D922A95E9F7EEEFF1E002
:1039C000DF011D928A95E9F70E94E71A811102C072
:1039D0000E94880E82E090E00E94F12280930C0207
:1039E00084E090E00E94F122182F82E290E00E9491
:1039F000F122982F812F90930602809305020E9456
:103A00002E1ABFEFE6E7F1E0B150E040F040E1F7F9
:103A100000C000000E942E1A8091170280FF08C08B
:103A20006FEF7FEF90E080E00E9423230E9428093F
:103A300083E090E00E94F1220E94510F80910702E2
:103A4000811133C00E94E71A811104C00E94880EC0
:103A50000E94780E88E090E00E94F9226093530261
:103A60007093540280935502909356026E7F71F4C6
:103A70000E94780E88E090E00E94F9226093530241
:103A80007093540280935502909356020E94B4059D
:103A9000109225028091530280FF04C060E0869559
:103AA0000E94180E81E08093070280E091E09093DD
:103AB0005F0280935E0228E1622E712C30E4532E67
:103AC0004EE1A42E42E0B42ECE0101966C0180910D
:103AD0007802FF24F39400E112E1853009F49FC0DD
:103AE0000E942E1A9DE0E92E92E0F92E07E112E0E5
:103AF000D801F70191918D9122E0E431F20709F4A8
:103B0000ABC09817B9F3912CD8018D908D01F701B6
:103B100021907F01281419F12824412C3324339457
:103B2000822D8321A1F04EA69FA691E0882D8321AE
:103B300009F490E098AB0E9469058160782F9AABF8
:103B400089AB4EA55FA568A98AA90E94361943943E
:103B5000330CF8E04F12E4CFF70131978082939451
:103B600027E09212D1CF8FB7F89440916302509121
:103B7000640260916502709166028FBF8DC0809172
:103B80007802843009F43DC0109225028091090228
:103B9000811116C0F092090280915302982F917002
:103BA000909308028E7F809353029FEFA0E7B2E0CC
:103BB0009150A040B040E1F700C000000E944C09C5
:103BC000109262020FB6F894A895609260000FBE42
:103BD0005092600083B7817F846083BF83B7816028
:103BE00083BF7894889583B78E7F83BF0FB6F89490
:103BF000A8958091600088618093600010926000B9
:103C00000FBE80917702882351F00E942E1AE7E1BF
:103C1000F2E081918111C1C3AE16BF06D1F7809148
:103C20007802853009F4ABCF10926B020E94560FD8
:103C30000E94A1051092090280910802882349F090
:103C40008091530281608093530260E086950E94C8
:103C5000180E0E940A0D44CF981355CF0E94690593
:103C60008C0180910A0290910B0208171907A1F0AC
:103C70008FEF89A78AA71BA60E9469058160782F0C
:103C80009DA78CA749A55AA56BA58DA50E9436199D
:103C900010930B0200930A02809125028823D1F130
:103CA00080912402E0915302E695E81BE093200204
:103CB000823009F083C0F0E0E25BFE4FE4910E2F0A
:103CC00010E082E8E82E8BE0F82E80912102882314
:103CD00061F0109221020E94690590931F02809367
:103CE0001E0210922302109222020E946905E091A6
:103CF0001E02F0911F028E1B9F0B8F3F9F4750F4B7
:103D0000E00FF11FF0931F02E0931E028EE192E09C
:103D1000F70109950E94A10590911402891769F095
:103D2000809314028FB7F89440916302509164021B
:103D300060916502709166028FBF80917802843035
:103D400009F0C5CE83E08093E9008091E80082FF0E
:103D5000BECE8091E80090E085FF0CC00E94FE037B
:103D600030E2E32EF12C8E010F5F1F4F882309F400
:103D700089C091E08091E8008B778093E8009923D7
:103D800009F4A5CE00915A0210915B0289810115B8
:103D9000110509F485C08E3F09F013C18A81833073
:103DA00020F08550833008F00CC1EA81EE3008F035
:103DB00008C1F0E0EF5AFC4D0C944622863059F4CD
:103DC000F0E0E55BFE4FE4910E2F10E0B2E7EB2E42
:103DD000BBE0FB2E7ACF893061F4E695F0E0E85B3A
:103DE000FE4FE4910E2F10E0A6EEEA2EAAE0FA2E86
:103DF0006CCF8F3061F4E695F0E0EB5BFE4FE49121
:103E00000E2F10E0F1E8EF2EFAE0FF2E5ECF8531A5
:103E100059F4F0E0EE5BFE4FE4910E2F10E0E3E387
:103E2000EE2EEAE0FE2E51CF08E210E058EBE52E30
:103E300059E0F52E883109F448CF833249F4E0E4A3
:103E4000F1E00591149171E2E72E7BE0F72E3DCF72
:103E500004EF11E061E8E62E69E0F62E843209F401
:103E600034CF00ED17E044E6E42E45E0F42E2DCFEC
:103E70008091F100D8018D938D01B1E0EB1AF1082A
:103E800009F477CF8091E80085FDF2CF8091E800BA
:103E90008B778093E8000E94FE03882399F369CF13
:103EA000893009F450C128F5843009F4DBC058F496
:103EB000823009F46CC008F0C6C0813009F463C0D8
:103EC0008FEF89837EC0863009F4E2C008F4D5C044
:103ED000873009F4E0C0883099F78A81813809F485
:103EE00027C108F019C1803809F06BC080915602D3
:103EF0004CC0803109F461C1D0F58D3009F42EC178
:103F000028F48C30E9F680E18A835BC08E3009F4B6
:103F100029C18F30A9F680911A0190911B01892B3C
:103F200009F44FC0EC80F12CFDE1EF16F10408F02C
:103F300048C00A811B81102701271027CE01019656
:103F40004C01E00EF11EC80189589E4F0E151F0549
:103F5000C1F10938A2E01A0720F4F40164810E943B
:103F60000523FFEF8F1A9F0A0F5F1F4FECCF82319F
:103F700009F428C108F424C1833109F44DC18E3FEE
:103F800009F09ECF12CF1A8289E08B831AC08A81F2
:103F9000823009F41AC28330D1F1813009F090CF18
:103FA0002FB7F8946091630270916402809165026A
:103FB000909166022FBF0E944C226B837C838D837D
:103FC0009E8380917802843009F081CD1091E900C0
:103FD0001F709091EC00892F817090FD80E8182B64
:103FE00082E08093E9008091E80080FF0CC050E0FF
:103FF00040E060E270E0C6010E942F048091E8007A
:104000008E778093E8001F701093E90060CD809157
:104010001A0190911B01892BA1F2809117028B83C9
:10402000809118028C83809119028D8380911A02ED
:104030008E8380911B028F8380911C0288878091E0
:104040001D028987BECF8A81823009F039CF6B810A
:104050007C818D819E810E944C2286E290E00E94AC
:104060000523AFCF4C816B818A810E943F0C98273A
:10407000892798279E838D83A4CF2D813E81322767
:10408000232732274C816B818A810E94A60B99CF0E
:104090000E94CC0B96CF8A818138C1F060F48038C1
:1040A00009F08FCF20E04B8160915502809154023E
:1040B0000E94330D86CF823859F1833809F081CFC1
:1040C00020E0409156026C818B81F2CF60E08B81C1
:1040D0000E94180E9B8180915302911111C08E7F16
:1040E0008093530210922502EFEFF0E722E0E150B7
:1040F000F0402040E1F700C000000E944C0961CF71
:1041000081608093530260E086950E94180E59CF1B
:104110008B818093570255CF823891F0833809F014
:1041200050CF809154028B83809155028C8349CF6C
:104130008091530280FF02C0869527CF80E025CF73
:104140008091570222CF6091530270915402809166
:104150005502909156020E94200D33CF82E08A834F
:1041600089E813CF0C8110E00D31110508F029CF3B
:104170008A809B80982489249824CE0101967C0112
:10418000080F191FC40189589E4FE016F10609F463
:1041900018CFA9E88A16A2E09A0658F40E94F122E4
:1041A000F7018483BFEF8B1A9B0AEFEFEE1AFE0A2A
:1041B000E9CFD70114961C92F5CF0E94960B01CF40
:1041C00083E0A2CEEC80F12C2DE1E216F10408F0A0
:1041D000F8CE8A809B809824892498248E010F5FD2
:1041E0001F4FE00EF11EC4018796E016F10609F498
:1041F000E8CEA0E58A16A1E09A0650F40E94F122CA
:10420000F8018483BFEF8B1A9B0A0F5F1F4FEBCF20
:10421000D80114961C92F6CFEC80F12CEDE1EE164D
:10422000F10408F0CECE0A811B8110270127102748
:104230000035F1E01F0708F0C4CE80E591E0801B57
:10424000910B8E159F0508F4BCCECE0101964C0152
:10425000E00EF11EC8018796E016F10609F4B1CE12
:104260000035A1E01A0720F4F40164810E940523BF
:10427000FFEF8F1A9F0A0F5F1F4FECCF88E0EDE131
:10428000F1E0DE01919601900D928A95E1F780E2CE
:10429000D6011D928A95E9F785E0898388E0FE01C1
:1042A000B196DE01159601900D928A95E1F789CEBF
:1042B0008CE3898381E08A831B821C8282CE8C817D
:1042C000682F70E0762F66278B81860F972F911DC0
:1042D000092E000CAA0BBB0B25E0880F991FAA1F03
:1042E000BB1F2A95D1F7AC01BD01405E5F4F6F4FF8
:1042F0007F4F481759076A077B0708F462CE8C3353
:10430000E1E09E07A105B10508F05BCE4D33F1E079
:104310005F076105710520F04CE351E060E070E05B
:10432000481B590BBC016E5A7E4FC6010E94C72222
:1043300048CE4EE150E06FEF70E0CE0103960E9450
:10434000EA2280911A0189830A833BCE81E090E0C2
:1043500090935B0280935A0282E390E0909316025E
:10436000809315020E9469052CCE80911A018983E1
:104370000A838091150209CE40E250E06FEF70E0B1
:10438000C6010E94EA221DCE8B8181111ACE80E2E5
:10439000D6011D928A95E9F714CE09BD19BD09B45D
:1043A00000FEFDCF8091D8008F7D8093D800809152
:1043B000E00082608093E0008091E00081FDFCCF0E
:1043C00010926B020E94560F2ACC86E290E00E9467
:1043D000F1221B821C821D828E83F3CD87FB082E67
:1043E000062687FD819567FD61950E94BB220EF42C
:1043F000919507FC81950895AA1BBB1B51E107C04D
:10440000AA1FBB1FA617B70710F0A61BB70B881F64
:10441000991F5A95A9F780959095BC01CD010895F3
:1044200097FB072E16F4009407D077FD09D00E9461
:10443000FC2107FC05D03EF4909581959F4F08958F
:10444000709561957F4F0895A1E21A2EAA1BBB1BA0
:10445000FD010DC0AA1FBB1FEE1FFF1FA217B30750
:10446000E407F50720F0A21BB30BE40BF50B661F66
:10447000771F881F991F1A9469F76095709580952A
:1044800090959B01AC01BD01CF010895EE0FFF1F78
:104490000590F491E02D09946927962769277827DC
:1044A0008727782708950E945B22332312F48A1B02
:1044B0009B0B0C946C22A29FB001B39FC001A39FE1
:1044C000700D811D1124911DB29F700D811D11244D
:1044D000911D08950E945B22B7FF0895821B930BE4
:1044E00008950E945B22A59F900DB49F900DA49FFC
:1044F000800D911D11240895B7FF0C9471220E9424
:104500007122821B930B08952F923F924F925F92DC
:104510006F927F928F929F92AF92BF92CF92DF92D3
:10452000EF92FF920F931F93CF93DF93CDB7DEB738
:10453000CA1BDB0B0FB6F894DEBF0FBECDBF0994CC
:104540002A88398848885F846E847D848C849B8423
:10455000AA84B984C884DF80EE80FD800C811B8131
:10456000AA81B981CE0FD11D0FB6F894DEBF0FBE60
:10457000CDBFED010895991B79E004C0991F9617EE
:1045800008F0961B881F7A95C9F780950895FB015E
:10459000DC0102C005900D9241505040D8F70895BB
:1045A000FC014150504030F001900616D1F7319790
:1045B000CF010895882799270895FB01DC0104C0E5
:1045C0008D910190801921F441505040C8F7881B0B
:1045D000990B0895DC0101C06D9341505040E0F704
:1045E0000895F999FECF92BD81BDF89A992780B5BB
:1045F0000895A6E1B0E044E050E00C942B23A8E13C
:10460000B0E042E050E00C942B23262FF999FECF26
:1046100092BD81BDF89A019700B4021639F01FBA15
:1046200020BD0FB6F894FA9AF99A0FBE0895039632
:10463000272F0E9406230E940523252F0E94062370
:10464000242F0C9406230196272F0E9406230C94F6
:104650000523DC01CB01FC01F999FECF06C0F2BDB8
:10466000E1BDF89A319600B40D9241505040B8F730
:104670000895F894FFCF43106B1019126B101912A4
:104680009E10BF101912C811D511AB15AB15EF153F
:10469000EF152016DE15DE15DE153A16AB16BB1625
:1046A000BB163E2158215F21E11FE11F9921A62160
:0E46B000B521E11FBC21E11FE11FE11FC42164
:1046BE006605FB086505F608F108630501191A1B66
:1046CE001C1D1E1F202122010201010001D5FF49E0
:1046DE008E2E19BF7E818283E200E900EA00B500CA
:1046EE00B600B700CD008301CC008A01920194017F
:1046FE002102230224022502260227022A02B300E7
:10470E00B4006F007000929097949391663534C602
:10471E00F73133323600010202020206060609099B
:10472E00090909090F0F0F0F0F0F15151518191974
:10473E00191919191919191923244022320001DEE9
:0A474E0000AC00F5050E062E060073
:00000001FF
