:100000000C9429080C9470080C9470080C947008D7
:100010000C9470080C9470080C9470080C94700880
:100020000C9470080C9470080C945E310C9432326D
:100030000C94E02B0C9470080C9470080C947008CD
:100040000C9470080C9470080C9470080C94700850
:100050000C9470080C94372C0C9470080C94700855
:100060000C9470080C9470080C9470080C94700830
:100070000C9470080C9470080C9470080C94700820
:100080000C9470080C9470080C9470080C94700810
:100090000C9470080C9470080C9470080C94700800
:1000A0000C9470080C9470080C94700829001A00C5
:1000B00015001C000C001300300000002B0016007F
:1000C00009000B000E00330028000000E1001B00B7
:1000D000190005001000370052000000E000E200A7
:1000E0002C0001512A00E30050004F0014000800CA
:1000F0001700180012002F00310000000400070054
:100100000A000D000F003400025100001D0006001F
:100110000500110036003800510000004C001F009F
:1001200021002300250027002E00000001003B00D5
:100130003D003F004100430045000000E500C45C75
:1001400001000100A8000100A90000000100010059
:100150000100010001000100010001001E0020005B
:100160002200240026002D00310000003A003C004F
:100170003E0040004200440001000000C35C01005A
:100180000100010001000100AA0000003502010089
:1001900001000100490046000100000001000100CB
:1001A00001004A00010001000100000001000100FF
:1001B00001000100010001004B00000001000100EE
:1001C00001000100010001000100010001004D00DB
:1001D0000100010001000100005C000001004C0072
:1001E0000100010001000100010000000100010008
:1001F00001000100010001004E000000444542558D
:10020000473A2064697361626C65642E0A00444554
:100210004255473A20656E61626C65642E0A004F54
:100220006E6573686F743A206163746976653A200D
:1002300025640A000A0025303258006B6579626F28
:100240006172645F7365745F6C65643A20000A00D4
:1002500025303862003A200025303258000A722FCB
:10026000632030313233343536370A00313A09648D
:10027000656C6179282A31306D73293A2025750A19
:10028000323A09696E74657276616C286D73293A29
:100290002025750A333A096D61785F73706565646E
:1002A0003A2025750A343A0974696D655F746F5F89
:1002B0006D61783A2025750A353A09776865656C6D
:1002C0005F6D61785F73706565643A2025750A36E5
:1002D0003A09776865656C5F74696D655F746F5F17
:1002E0006D61783A2025750A00703A097072696E5E
:1002F000742076616C7565730A643A0973657420BD
:1003000064656661756C74730A75703A092B310AFD
:10031000646E3A092D310A6C743A092B31300A7235
:10032000743A092D31300A4553432F713A097175DA
:1003300069740A0A7370656564203D2064656C7495
:1003400061202A206D61785F7370656564202A20C2
:1003500028726570656174202F2074696D655F7403
:100360006F5F6D6178290A77686572652064656CD6
:1003700074613A20637572736F723D25642C207727
:100380006865656C3D25640A536565206874747002
:100390003A2F2F656E2E77696B6970656469612EDF
:1003A0006F72672F77696B692F4D6F7573655F6B20
:1003B0006579730A004D3E20004D25753A25733E40
:1003C00020003F0A003D2025750A003F0A006465B1
:1003D0006661756C74730A0025750A003F0A000A8D
:1003E000092D2056616C756573202D0A00710A0075
:1003F0000A092D204D6F7573656B6579202D0A00F4
:100400003F00433E20004C25640A000A092D20537A
:100410007461747573202D0A686F73745F6B6579EE
:10042000626F6172645F6C65647328293A202530BD
:1004300032580A6B6579626F6172645F70726F74B3
:100440006F636F6C3A20253032580A6B6579626FA2
:100450006172645F69646C653A20253032580A74B1
:10046000696D65725F72656164333228293A2025AF
:1004700030386C580A000A092D2056657273696F6E
:100480006E202D0A5649443A203078464545442886
:100490006B72656D6529205049443A2030783030C0
:1004A0003030286B6F6C696272696D696E692920E2
:1004B0005645523A203078303030310A4255494C56
:1004C000443A2020285365702020322032303232C6
:1004D000290A4F5054494F4E533A204C554641201B
:1004E0004D4F5553454B45592045585452414B4566
:1004F0005920434F4E534F4C4520434F4D4D414E95
:100500004420343039360A4743433A20382E342EBB
:1005100030204156522D4C4942433A20322E302E43
:1005200030204156525F415243483A20617672353D
:100530000A000A092D20436F6E736F6C65202D0A27
:100540004553432F713A09717569740A6D3A096D03
:100550006F7573656B65790A000A092D204D616717
:100560006963202D0A443A094465627567204D6528
:10057000737361676520546F67676C650A583A0941
:100580004D6174726978204465627567204D6F64AF
:100590006520546F67676C65202D2053686F772046
:1005A0006B65797072657373657320696E206D6118
:1005B0007472697820677269640A4B3A094B6579ED
:1005C000626F61726420446562756720546F67676B
:1005D0006C65202D2053686F77206B65797072658C
:1005E0007373207265706F72740A4D3A09446562C4
:1005F0007567204D6F75736520546F67676C650A6A
:10060000563A0956657273696F6E0A533A09537404
:10061000617475730A433A0941637469766174655C
:1006200020436F6E736F6C65204D6F64650A4631B1
:100630002D4631303A0953776974636820746F200E
:100640004C6179657220302D392028463130203DAB
:10065000204C30290A302D393A0953776974636880
:1006600020746F204C6179657220302D390A475211
:100670004156453A0953776974636820746F204C7A
:100680006179657220302028616C7465726E6174C6
:1006900065290A423A094A756D7020746F20426FCD
:1006A0006F746C6F616465720A4553433A094A7509
:1006B0006D7020746F20426F6F746C6F616465722F
:1006C0002028616C7465726E617465290A453A0967
:1006D0005072696E7420454550524F4D20536574D9
:1006E00074696E67730A4253504143453A09436C3B
:1006F00065617220454550524F4D0A006B65796D1A
:1007000061705F636F6E6669672E7261773A20254C
:100710003032580A2E737761705F636F6E74726F38
:100720006C5F636170736C6F636B3A2025750A2E82
:10073000636170736C6F636B5F746F5F636F6E7414
:10074000726F6C3A2025750A2E737761705F6C6347
:10075000746C5F6C6775693A2025750A2E73776132
:10076000705F7263746C5F726775693A2025750AF1
:100770002E737761705F6C616C745F6C6775693A3A
:100780002025750A2E737761705F72616C745F72D9
:100790006775693A2025750A2E6E6F5F6775693A2D
:1007A0002025750A2E737761705F67726176655FC9
:1007B0006573633A2025750A2E737761705F6261F5
:1007C000636B736C6173685F6261636B73706163A9
:1007D000653A2025750A2E6E6B726F3A2025750AD0
:1007E0000064656275675F636F6E6669672E72612C
:1007F000773A20253032580A2E656E61626C653A70
:100800002025750A2E6D61747269783A2025750A63
:100810002E6B6579626F6172643A2025750A2E6DC0
:100820006F7573653A2025750A006565636F6E669E
:1008300069673A0A64656661756C745F6C617965B5
:10084000723A2025750A003F000A6D6F7573653A8C
:10085000206F66660A000A6D6F7573653A206F6EC9
:100860000A000A6B6579626F6172643A206F66668E
:100870000A000A6B6579626F6172643A206F6E0AD2
:10088000000A6D61747269783A206F66660A000A20
:100890006D61747269783A206F6E0A000A6465624D
:1008A00075673A206F66660A000A64656275673A82
:1008B000206F6E0A000A0A4A756D70696E672074AF
:1008C0006F20626F6F746C6F616465722E2E2E20C4
:1008D00000433E2000436C656172696E67204545A8
:1008E00050524F4D0A00290A002575002F0025752A
:1008F000005D280025640020002564002000256498
:100900000020002564007C0025303258006D6F7592
:1009100073656B6579205B62746E7C7820792076D4
:1009200020685D287265702F61636C293A205B0036
:100930007267626C696768742074696D657220649F
:10094000697361626C652E0A007267626C69676820
:10095000742074696D657220656E61626C65642EC9
:100960000A007267626C6967687420736574206836
:100970007376205B4E4F454550524F4D5D3A2025D2
:10098000752C25752C25750A007267626C6967687D
:10099000742073657420687376205B454550524F10
:1009A0004D5D3A2025752C25752C25750A0072673A
:1009B000626C69676874207261696E626F77207318
:1009C0006574206873763A2025642C25642C256490
:1009D0002C25750A007267626C6967687420646907
:1009E0007361626C65205B4E4F454550524F4D5DC3
:1009F0003A207267626C696768745F636F6E6669DC
:100A0000672E656E61626C65203D2025750A007257
:100A100067626C696768742064697361626C6520E1
:100A20005B454550524F4D5D3A207267626C696775
:100A300068745F636F6E6669672E656E61626C6570
:100A4000203D2025750A007267626C696768742012
:100A5000656E61626C65205B4E4F454550524F4D4F
:100A60005D3A207267626C696768745F636F6E6677
:100A700069672E656E61626C65203D2025750A00F0
:100A80007267626C6967687420656E61626C65206C
:100A90005B454550524F4D5D3A207267626C696705
:100AA00068745F636F6E6669672E656E61626C6500
:100AB000203D2025750A007267626C6967687420A2
:100AC000746F67676C65205B454550524F4D5D3ACA
:100AD000207267626C696768745F636F6E666967CE
:100AE0002E656E61626C65203D2025750A00726777
:100AF000626C69676874206D6F6465205B4E4F455A
:100B00004550524F4D5D3A2025750A007267626C60
:100B100069676874206D6F6465205B454550524F6E
:100B20004D5D3A2025750A007267626C69676874CA
:100B30005F696E6974207267626C696768745F636D
:100B40006F6E6669672E6D6F6465203D20302E20C4
:100B500057726974652064656661756C742076618E
:100B60006C75657320746F20454550524F4D2E0AA9
:100B7000007267626C696768745F696E697420658A
:100B800065636F6E666967206973206E6F74206598
:100B90006E61626C65642E0A007267626C696768D8
:100BA000745F696E6974207374617274210A0072D3
:100BB00067626C696768745F696E69742063616CF1
:100BC0006C65642E0A007267626C696768745F63A3
:100BD0006F6E6669672E7370656564203D202564BD
:100BE0000A007267626C696768745F636F6E66693A
:100BF000672E76616C203D2025640A007267626C66
:100C0000696768745F636F6E6669672E73617420CD
:100C10003D2025640A007267626C696768745F63CF
:100C20006F6E6669672E687565203D2025640A0031
:100C30007267686C696768745F636F6E6669672E58
:100C40006D6F6465203D2025640A007267626C69DF
:100C50006768745F636F6E6669672E656E61626C4C
:100C600065203D2025640A007267626C69676874BC
:100C70005F636F6E66696720454550524F4D3A0A73
:100C80000000047F3F1F643214643214783C1E1E3F
:100C9000140A052223252628292A2C2D2F30323309
:100CA0003536383A3B3D3E4042434547494A4C4E33
:100CB0005051535557595A5C5E6062646668696B5F
:100CC0006D6F71737577797B7D7F81838587898A65
:100CD0008C8E90929496989A9C9E9FA1A3A5A7A86B
:100CE000AAACAEAFB1B3B4B6B8B9BBBCBEBFC1C29B
:100CF000C3C5C6C7C9CACBCCCDCED0D1D2D2D3D42E
:100D0000D5D6D7D7D8D9D9DADADBDBDBDCDCDCDC4B
:100D1000DCDDDDDDDDDCDCDCDCDCDBDBDBDADAD919
:100D2000D9D8D7D7D6D5D4D3D2D2D1D0CECDCCCB9B
:100D3000CAC9C7C6C5C3C2C1BFBEBCBBB9B8B6B4B9
:100D4000B3B1AFAEACAAA8A7A5A3A19F9E9C9A9849
:100D5000969492908E8C8A89878583817F7D7B791A
:100D6000777573716F6D6B6968666462605E5C5AFB
:100D70005957555351504E4C4A4947454342403EBE
:100D80003D3B3A3836353332302F2D2C2A29282650
:100D9000252322FFAA7F5540000101010101010125
:100DA0000101020202020202020202030303030320
:100DB00003030304040404040404050505050506EF
:100DC00006060606070707070708080808090909AD
:100DD000090A0A0A0B0B0B0C0C0C0D0D0D0E0E0E56
:100DE0000F0F0F10101111111212131314141515E7
:100DF00016161717181819191A1A1B1B1C1D1D1E59
:100E00001E1F2020212222232424252626272829AC
:100E1000292A2B2C2D2D2E2F3031323233343536DA
:100E20003738393A3B3C3D3E3F40414243444546DA
:100E30004748494A4C4D4E4F5051535455565859B6
:100E40005A5B5D5E5F616264656668696B6C6D6F5D
:100E50007072737577787A7B7D7E808283858788D0
:100E60008A8C8E8F91939596989A9C9EA0A2A3A50A
:100E7000A7A9ABADAFB1B3B5B7BABCBEC0C2C4C60B
:100E8000C9CBCDCFD1D4D6D8DBDDDFE2E4E7E9EBC7
:100E9000EEF0F3F5F8FAFDFF0A0025303258200095
:100EA0006B6579626F6172645F7265706F72743ABC
:100EB00020005B735D004B6579626F617264207323
:100EC000746172742E0A005B575D005B535D005BBA
:100ED000525D005B445D005B435D0018036B006F77
:100EE000006C0069006200720069006D0069006EAC
:100EF00000690000000C036B00720065006D006566
:100F00000000000403090409025B00030100A0FAC9
:100F1000090400000103010100092111010001225F
:100F200040000705810308000A09040100010300CD
:100F30000000092111010001227B00070582032026
:100F4000000A090402000203000000092111010047
:100F50000122220007058303200001070503032067
:100F600000011201000200000008EDFE0000010077
:100F7000010200010631FF0974A10109751500265F
:100F8000FF009520750881020976150026FF00955F
:100F90002075089102C005010902A101850209011D
:100FA000A1000509190129081500250195087501F9
:100FB00081020501093009311581257F95027508E7
:100FC000810609381581257F950175088106050C74
:100FD0000A38021581257F950175088106C0C00574
:100FE000010980A101850319012AB700150126B75F
:100FF00000950175108100C0050C0901A10185044F
:1010000019012AA002150126A00295017510810080
:10101000C005010906A101050719E029E71500250A
:10102000019508750181029501750881010507196F
:101030000029FF150026FF009506750881000508A8
:101040001901290595057501910295017503910115
:10105000C00011241FBECFEFDAE0DEBFCDBF04B663
:1010600003FE27C080913D0390913E03A0913F0372
:10107000B09140038730904BA740B04BD1F4109211
:101080003D0310923E0310923F031092400314BEA2
:1010900084B7877F84BF0FB6F894A89580916000CD
:1010A000886180936000109260000FBEE0E0F8E37A
:1010B000099512E0A0E0B1E0E4E1FAE602C0059093
:1010C0000D92AA32B107D9F723E0AAE2B2E001C03B
:1010D0001D92AD33B207E1F70E9473190C94E0340E
:1010E0000C940000FF93EF93E0912A02F0912B0201
:1010F000309709F00995EF91FF910895FC018591D2
:10110000803011F0EFDFFBCF0895FF27E0E230E2FF
:1011100047FF0CC0419597FF09C0EDE260957095BF
:1011200080959095611D711D811D911D27FF02C045
:10113000219530E350E2AA27660F771F881F991F79
:10114000AA1FA41710F0A41B63955A95A9F7AA30FB
:1011500008F0A95FA05DAF93F39561157105810556
:10116000910541F7ED3211F4EF93F395F21718F46E
:101170003F93F395FBCF8F91B5DFFA95E1F7089593
:10118000E991F9918591803021F0853219F0AADF3B
:10119000F9CF089520E0E89455915532C1F35033CA
:1011A00011F4689455915A3348F4505390F3220F38
:1011B000022E220F220F200D250FF4CF0EF42195C1
:1011C00089919991533619F3533729F1533559F1D0
:1011D000BC0188279927E8945C3621F4899199917C
:1011E00068945591543639F446EF7EF077FF0DC080
:1011F0008FEF9FEF0AC055374AE039F0583540E18C
:1012000021F0523642E009F00895FF93EF937DDF1D
:10121000EF91FF91B7CFFF93EF93FC018191803065
:10122000B9F360DFFBCFFF93EF9368DFF1CFDF937C
:10123000CF93CDB7DEB72596A3DFCF91DF91089589
:1012400081E0089581E008950C94220908950C949A
:1012500026091F93CF93DF9300D000D00F92CDB714
:10126000DEB749835A836B8330912C0289819A813E
:1012700031111DC06623B9F02223A9F00E94280F66
:10128000182F682F89819A810E94D30E69817A81F3
:10129000812F0F900F900F900F900F90DF91CF91B3
:1012A0001F910C949E150E94000F182FEFCF0E94E3
:1012B000280F69817A81EDCFFC01262F4081518171
:1012C0006281738184810C94290981E00895CF9310
:1012D000DF93EC0160E00E945C09BE01DF91CF91D9
:1012E0000C9427090E94C7170E94160A0C94EC1749
:1012F0000C94EF1708950E947C0D0E947A092FEF3D
:1013000084E39CE0215080409040E1F700C0000061
:101310000C945B2C0F931F93CF93DF938C0161E0B0
:101320000E945C09EC01B8010E9424098823F1F1B4
:10133000B801CE010E94F9288823C1F1B801CE017D
:101340000E944B29882391F1B801CE010E94752A91
:10135000882361F1B801CE010E949627882331F1DC
:10136000F8018281882361F0CF3DFCE5DF07B1F110
:1013700070F4C115ECE5DE07B9F0C130DC45E1F0F1
:10138000C801DF91CF911F910F910C942009CC35AA
:101390008DE5D80749F1CD35DC0719F1CB35DD45B1
:1013A00079F70E942113ECCF0E947B0980E0DF9146
:1013B000CF911F910F9108959091AD02892F8E7F4B
:1013C00090FF81608093AD0280FF05C08EE092E0C7
:1013D0000E947E08EBCF8CEF91E0FACF0E948F1431
:1013E000E5CF0E941813CCCF0E942413C9CF829559
:1013F00090E09C01220F331F220F331F2C7C959508
:101400008795959587958373282B30E0C901880FC0
:10141000991F8A7A359527952575822B0895089509
:101420000C940F0A81E008950C94120A0895CF934A
:10143000C82F0E94100A8C2FCF910C94140ACF93BE
:10144000DF93CDB7DEB72B970FB6F894DEBF0FBE94
:10145000CDBF4F83588769877A878B8761110E9438
:1014600047131E821D8285E0FE013796DE0111962C
:1014700001900D928A95E1F78C819D81892B89F4E9
:1014800049815A816B817C818D819E810E943412B9
:101490002B960FB6F894DEBF0FBECDBFDF91CF9174
:1014A000089589819A8189238F3F51F3CE01019656
:1014B0000E9465098111E4CFEBCFFC01808191810D
:1014C0000C946A0FCF93C82F882309F44CC08CEF7B
:1014D0008C0F813AC8F48C2F0E943C1C811143C0B0
:1014E0006C2F80910001909101010E94482B88236C
:1014F00029F08C2F0E94D5120E9477138C2F0E9406
:10150000CE12CF910C94771380E28C0F883048F480
:10151000C77081E001C0880FCA95EAF70E942A13BC
:10152000F0CFEBE5EC0FE33040F4F0E0EA5AFE4F89
:10153000808190E0CF910C940A2BE8E5EC0FE73125
:1015400050F4F0E0EE0FFF1FE85DFE4F80819181C7
:10155000CF910C94202BCD3E30F08C2F0E94131D88
:10156000CF910C94E61DCF910895882361F19CEFF3
:10157000980F913A20F40E94D5120C94771390E2C0
:10158000980F983050F4877091E001C0990F8A95B8
:10159000EAF7892F0E943013F0CF9BE5980F933024
:1015A00020F490E080E00C940A2B98E5980F973196
:1015B00020F490E080E00C94202B8D3E20F00E94DF
:1015C0006D1D0C94E61D08951F93CF93DF93182F84
:1015D000EB010E94620A209731F4812FDF91CF91B5
:1015E0001F910C94B50A8FE99FE00197F1F700C0B5
:1015F00000002197F0CF70E060E0893311F460E5DE
:1016000070E00C94E40A882321F00E942A130C94C1
:1016100077130895882321F00E9430130C947713D8
:101620000895BF92CF92DF92EF92FF920F931F9394
:10163000CF93DF936C01D62FC72FFC011281058158
:1016400002950F700E94EC12E82E8823A1F0E12E83
:10165000112389F08C2F807F803429F080E28D0F58
:10166000E12C883040F082E00E94C8130E94EC1206
:1016700091E0E82EE926BC2EB2949FE0B922EB2D32
:10168000F0E0EE51FB4C0C9447340C2F0F70C07FF0
:1016900011F00295007F1123A9F0002359F080E298
:1016A0008D0F883010F0D11109C0802F0E942A13AD
:1016B0000E9477138D2F0E94620A14C0802F0E940F
:1016C0003A13F6CF8D2F0E94B50A002359F080E21D
:1016D0008D0F883010F0D1112CC0802F0E94301354
:1016E0000E9477132B2D2850330B2430310520F422
:1016F0000E94A42A0E94170AEE2009F49EC10E94AB
:10170000E81280FD9AC1F60112820E94E2120E9444
:10171000370EC6010E943E0D0E94E212DF91CF916A
:101720001F910F91FF90EF90DF90CF90BF900C949E
:10173000580E802F0E944013D3CFFC2FFF70FF2E36
:10174000C07FC03219F0F29480EFF822DD2369F0F7
:10175000D13049F1112391F1002351F1F601858136
:1017600080FFA8CF8F70858323C0112381F00111E2
:1017700006C00E945A138F290E94030BB3CF013079
:10178000C1F70E945A138F290E946013ABCF011139
:1017900006C00E946D138F2D0E940A0BA3CF01304B
:1017A00009F4A0CFF6CF112329F0063008F09ACF24
:1017B0008F2DE2CF053008F095CFEDCF002359F300
:1017C000D93349F4FFEF27EE33E0F15020403040A9
:1017D000E1F700C000008D2F0E94B50A83CF8C2F47
:1017E00086958695837069F0813009F07BCF8D2FC7
:1017F0009C2F9370111102C090E080E00E94202B7A
:1018000071CF8D2F9C2F9370111102C090E080E05A
:101810000E940A2B67CF8D2F112329F00E94131DE0
:101820000E94E61D5FCF0E946D1DFACF8C2F837042
:1018300009F041C0111156CF4D2F42954695477082
:10184000440F440F0D2F0F7010E030E020E0042E05
:1018500004C0000F111F221F331F0A94D2F760E04B
:1018600070E0CB01D4FF0FC06FE070E080E090E04B
:1018700004C0660F771F881F991F4A95D2F760959D
:10188000709580959095C695C695C370602B712B09
:10189000822B932BC23049F058F4C13019F00E94CA
:1018A000E90D20CF0E94D70D1DCF0E94FB0D1ACF4E
:1018B0000E94D50D17CF8695112311F08C2F8170C2
:1018C000882309F40FCF4D2F429546954770440F5A
:1018D000440F0D2F0F7010E030E020E0042E04C004
:1018E000000F111F221F331F0A94D2F760E070E02F
:1018F000CB01D4FF0FC06FE070E080E090E004C047
:10190000660F771F881F991F4A95D2F760957095CB
:1019100080959095C695C695C370602B712B822BD0
:10192000932BC23049F058F4C13019F00E94AE0E2A
:10193000D9CE0E949C0ED6CE0E94C00ED3CE0E945D
:10194000110ED0CECF70112329F08C2F0E94370EAC
:101950008D2F12CF8D2F0E940A0B8C2F0E94580EB4
:10196000C1CED23F89F160F4D03FC9F0D13F29F117
:10197000112309F442C001119DCE8C2F8F7121C01B
:10198000D33F39F1D43FA1F7112369F1CF718C2FE7
:101990000E94370E63E08C2F0E94AD13A3CE11235B
:1019A00041F0053008F09ECE8C2F8F710E947B0E87
:1019B00099CE063008F096CEF7CF8C2F8F71112379
:1019C00069F20E94370E8ECE8C2F8F711123C9F3CE
:1019D000C5CF112329F08C2F8F710E94220E82CE49
:1019E0000E941D0E7FCE81E00E94C813023008F4D1
:1019F00079CE82E00E94C81375CE002359F0D93306
:101A000009F0E9CE8FEF97EEE3E081509040E0409F
:101A1000E1F7DFCE8C2F8F71A1CF4C2F4F706D2F40
:101A2000C6010E949A150E94980F5CCE4C2F4F70F1
:101A30006D2FC6010E949D1555CEDF91CF911F914C
:101A40000F91FF90EF90DF90CF90BF9008950F938C
:101A50001F93CF93DF93EC01688179818A810E9483
:101A6000740F8C010E94D20E0E94D40DB801CE01D9
:101A7000DF91CF911F910F910C94110BCF93DF93B6
:101A8000EC018B819C81892B29F0888199818923A4
:101A90008F3F59F4DF91CF910895CE010E94270D19
:101AA000CE01DF91CF910C946709CE010E948A0983
:101AB0008111F3CF0E94EC12882361F38A8188237D
:101AC00049F382E0DF91CF910C94C81390E080E05D
:101AD0000E940A2B90E080E00E94202B0E94471376
:101AE0000E9457130E9477130E948F1F0C94E61DCB
:101AF0000E94DC120C94660D0E9437130C94780D32
:101B0000E92FE295EF70E250EE3070F4F0E0EE5025
:101B1000FB4C0C944734803F19F020F4883E20F4AD
:101B200081E00895843FE1F380E00895883EC0F3AA
:101B3000813FD1F7F5CF93FB882780F90895FC0109
:101B4000808191810E946A0F0C94800DCF93DF9366
:101B500000D000D00F92CDB7DEB70F900F900F904E
:101B60000F900F90DF91CF910895CF93DF9300D026
:101B700000D000D0CDB7DEB726960FB6F894DEBF02
:101B80000FBECDBFDF91CF91089508950C94C50D80
:101B90000E94C60D609354027093550280935602C2
:101BA000909357020C94660D08950C94C80D0F93F2
:101BB0001F930091540210915502209156023091CA
:101BC0005702602B712B822B932B1F910F910C943A
:101BD000C80D0F931F93009154021091550220914C
:101BE00056023091570260237123822393231F9161
:101BF0000F910C94C80D0F931F93009154021091F4
:101C00005502209156023091570260277127822792
:101C100093271F910F910C94C80D0C94C50D0C9433
:101C20000D0E0E940F0E609350027093510280932C
:101C30005202909353020C94660D60E070E0CB0169
:101C40000C94110E0F931F9341E050E060E070E0A0
:101C50008A019B0104C0000F111F221F331F8A95A8
:101C6000D2F7C901B8011F910F910C94110E0F9377
:101C70001F9341E050E060E070E004C0440F551F46
:101C8000661F771F8A95D2F780915002909151027A
:101C9000A0915202B09153028A019B01082B192B8B
:101CA0002A2B3B2BC901B8011F910F910C94110EE7
:101CB0000F931F9341E050E060E070E004C0440FD8
:101CC000551F661F771F8A95D2F7CB01BA01609521
:101CD000709580959095009150021091510220913D
:101CE00052023091530260237123822393231F9168
:101CF0000F910C94110E0F931F9341E050E060E0A0
:101D000070E004C0440F551F661F771F8A95D2F7F5
:101D10008091500290915102A0915202B0915302D1
:101D20008A019B01082719272A273B27C901B801E7
:101D30001F910F910C94110E0F931F93009150025D
:101D4000109151022091520230915302602B712B5D
:101D5000822B932B1F910F910C94110E0F931F93B5
:101D60000091500210915102209152023091530281
:101D700060237123822393231F910F910C94110EE2
:101D80000F931F9300915002109151022091520223
:101D90003091530260277127822793271F910F915B
:101DA0000C94110E0895990F990F990F890F982F80
:101DB000977041E001C0440F9A95EAF786958695A1
:101DC000869595E0899FF0011124E35DFD4F30E099
:101DD00020E070E05191DF011197CB01022E02C08B
:101DE000969587950A94E2F78170819585278423DB
:101DF00085278C932F5F3F4F2530310559F7089584
:101E0000990F990F990F890F982F9770869586953E
:101E1000869525E0829FF0011124E35DFD4F50E09F
:101E200040E080E0219130E0092E02C036952795F0
:101E30000A94E2F721703327042E01C0220F0A947E
:101E4000EAF7822B4F5F5F4F4530510559F70895F0
:101E5000BF92CF92DF92EF92FF920F931F93CF9397
:101E6000DF938C01C0905002D0905102E09052025A
:101E7000F09053028091540290915502A091560225
:101E8000B0915702C82AD92AEA2AFB2ACFE1D0E02A
:101E9000BC2ED701C6010C2E04C0B695A795979508
:101EA00087950A94D2F780FD0EC0219788F7B12C50
:101EB0008B2DDF91CF911F910F91FF90EF90DF90CD
:101EC000CF90BF900895B8018C2F0E94CE16019735
:101ED00061F3EECFCF93DF93EC010E94280FBE0198
:101EE000DF91CF910C94CE161F93CF93DF93EB012C
:101EF00090912C02992331F0CB01DF91CF911F916A
:101F00000C946A0F882379F0CB010E94280F182FB8
:101F1000682FCE010E94D30EBE01812FDF91CF9199
:101F20001F910C94CE16CB010E94000F182FF4CFF6
:101F3000EF92FF920F931F93CF93DF938C01892B26
:101F400081F0F12CEE24E394E8012196F8018491CC
:101F5000843770F4843008F05FC08130B1F0823093
:101F6000A1F1DF91CF911F910F91FF90EF90089514
:101F7000853709F44CC008F43DC09CE7980F9037B2
:101F800080F78F770E94B50A49C00E5F1F4FFE0190
:101F9000849190E2980F983060F48770FE2D01C014
:101FA000FF0F8A95EAF78F2F0E944A130E9477133A
:101FB00002C00E94620A8F2D815030F2EFE9FFE0EB
:101FC0003197F1F700C00000F7CF0E5F1F4FFE0101
:101FD000849190E2980F983050F48770FE2D01C0E4
:101FE000FF0F8A95EAF78F2F0E945013DFCF0E94D0
:101FF000B50AE1CF0E5F1F4FFE01C491C150D8F268
:102000008FE99FE00197F1F700C00000F7CF0E5F66
:102010001F4FFE01F490CFCF0E94620A8E01CBCFFA
:102020001F93CF93DF93C091580216E0809159021D
:102030008C1304C0DF91CF911F910895D0E01C9FB5
:10204000F0011D9FF00D1124E65AFD4F4081518192
:1020500062817381848195810E94B50D2196C7703C
:10206000E5CF40918A0250918B0260918C02709171
:102070008D0280918E0290918F020C94B50D1F936A
:10208000CF93DF9380918F02807FA9F480918C029F
:10209000882389F080915802C091590260918A0288
:1020A00070918B02A0918D02B0918E02D62FD72312
:1020B00016E0C81304C0DF91CF911F91089590E0FE
:1020C000109711F0DF3F19F401968770F2CF189F37
:1020D0009001199F300D1124F901E65AFD4F4181FD
:1020E0004713F2CF40814613EFCF42814111ECCF2D
:1020F000438154814A1B5B0B483C510528F7809172
:102100008F028F70806180938F02F901E15AFD4F39
:1021100080818F70806180838AE892E00E943E0D0A
:10212000DF91CF911F910C941010AF92BF92CF927C
:10213000DF92EF92FF920F931F93CF93DF93CDB770
:10214000DEB761970FB6F894DEBF0FBECDBF8C012E
:1021500085E0F801DE011D9601900D928A95E1F768
:10216000F801E2808AE8C82E82E0D82E60918D02C4
:1021700070918E026115710509F45AC190918A021D
:1021800020918B02892F82238F3F09F451C1408116
:102190005181A380B480F0908C02F501E61BF70B0F
:1021A000FF2009F4F6C080918F02382F307FE83C81
:1021B000F10508F0AFC0311179C0FE2C251323C002
:1021C000941321C0E1101FC08F70806180938F0233
:1021D0000E943110C6010E943E0D80918F02F801CD
:1021E00085838F2D61960FB6F894DEBF0FBECDBFED
:1021F000DF91CF911F910F91FF90EF90DF90CF90E3
:10220000BF90AF900895AB2829F0842F85238F3F8E
:1022100009F027C180E0F82FF170DF2E80FF3CC06D
:10222000809158022091590236E0821315C04D87E3
:102230005E878D859E850E946A0F292F22952F70BB
:102240002230F0F0243018F59F70F1F0F8019581FC
:10225000907FD1F4D12C1EC090E0389FF001399FBF
:10226000F00D1124E65AFD4F6181651306C06081AF
:10227000641303C06281E6120FC001968770D5CF48
:102280009F7011F0882331F3805E883018F3C80105
:102290000E943E0DFD2CA5CFEE2009F4A2CF809127
:1022A0008F02816080938F02F12C9BCF251306C093
:1022B000941304C0F801EE2009F487C0C8010E94FD
:1022C0009F0D882319F1EE2009F180918F02803251
:1022D00070F020918A0230918B0238872F83198603
:1022E000BB86AA868C87CE0107960E943E0D86E0AB
:1022F000F801AAE8B2E001900D928A95E1F70E94F8
:102300003F100E943110FF24F3946BCFC8010E944C
:102310003E0DF9CF311113C07A2DB98AA88A6E2DDE
:1023200089890E94A60D8AE892E00E943E0D86E00F
:10233000F60111928A95E9F70E943110B5CF251365
:102340000FC094130DC0E1100BC0F8018583C801C4
:102350000E943E0D86E0F60111928A95E9F741CF81
:10236000C8010E949F0D882389F2EE2079F28091A6
:102370008F02803208F4BBCF20918A0230918B0209
:102380003A8329831B82BD82AC828E83CE01019663
:10239000ACCFE83CF10508F03EC0FE2CEE2009F47D
:1023A000B5CF25132AC0941328C080918F0280FDD9
:1023B0001BC0982F907FC1F0F8018583903F31F0CA
:1023C000982F907F905F8F70892B8583C8010E9422
:1023D0003E0D86E0F801AAE8B2E001900D928A95E0
:1023E000E1F70E943110FDCE86E0F801AAE8B2E0E4
:1023F00001900D928A95E1F7F4CEC8010E949F0DDD
:10240000811175CF80918F02816080938F02C80106
:102410000E943E0DE6CE7A2DB98AA88A6E2D898952
:102420000E94A60D86E0F60111928A95E9F7D9CFB0
:10243000EE2009F46BCFC8010E949F0DF82E88236F
:1024400009F464CF86E0F801AAE8B2E001900D92A9
:102450008A95E1F78AE892E00E945D0A0E943F10A7
:10246000C0CF81E08E25D7CE1F93CF93DF93CDB71A
:10247000DEB72C970FB6F894DEBF0FBECDBF4F83EB
:10248000588769877A878B879C87CE0107960E9439
:102490009510882369F08A859B85892B39F04F81B7
:1024A0005885842F85238F3F09F071C016E05FC0E7
:1024B00086E0FE013796DE01119601900D928A9515
:1024C000E1F78A859B85892B89F38F8198858923FC
:1024D0008F3F61F32091590230E0C9010196877066
:1024E0009927409158024817190671F40E947C0DF3
:1024F000109259021092580286E0EAE8F2E0DF01F9
:102500001D928A95E9F7D2CF96E0929FD001939FD2
:10251000B00D1124A65ABD4FFE01319601900D92C7
:102520009A95E1F7809359020E941010BFCF819FC6
:10253000C0011124865A9D4F0E9495108823E9F00E
:10254000E09158021E9FF0011124E65AFD4F408190
:10255000518162817381848195810E94B50D809142
:10256000580290E0019687709927809358028091D5
:102570005802909159028913DACF2C960FB6F8942D
:10258000DEBF0FBECDBFDF91CF911F91089569854A
:102590007A858B859C850E94B50D88CF682F8091A8
:1025A0000001909101010C947E2B682F8091000115
:1025B000909101010C94802B809100019091010178
:1025C0000C94822B80919002859585958595089530
:1025D000809190028770089590919002977081E0A9
:1025E00009F480E00895CF93C82F8091EE0282FB1A
:1025F000992790F99C17D1F0C0FB82F98093EE02E5
:102600008091ED029091EE020E940B148091AD0238
:1026100080FF0CC01F92CF938FE192E09F938F9326
:102620000E9417090F900F900F900F90CF9108956F
:102630008091EE0282FB882780F991E089270C9433
:10264000F31281E00C94F31280E00C94F312809169
:102650009C02089590919C02892B80939C0208957E
:10266000809590919C02982390939C0208951092DB
:102670009C02089590919B02892B80939B02089560
:10268000809590919B02982390939B0208951092BD
:102690009B02089590919A02892B80939A02089543
:1026A000809590919A02982390939A02089510929F
:1026B0009A02089580919102089508950C945D13F3
:1026C0009091EE0292FD08C090919102981721F02E
:1026D000809391020C945E13089580919102882357
:1026E00029F01092910280E00C945E130895E0911D
:1026F0000001F091010180919C028083E091000132
:10270000F0910101808190919B02892B8083E0915F
:102710000001F0910101808190919A02892B8083C0
:1027200090919102992381F0E0910001F0910101D3
:102730008081892B808380910001909101010E940A
:10274000362B81110E946D1380910001909101013F
:102750000C94B02A08950C94AA139091EE0292FD65
:1027600010C098E0899F90011124622B6093900221
:102770000E94370E809190028595859585950C94E1
:10278000AB130C94370E1092900280E00C94AB13B4
:10279000909190028095892380939002282F277032
:1027A00039F4282F082E000C330B9217130621F44E
:1027B0009091EE0292FF07C08595859585950E94C0
:1027C000580E0C94C31308956FEF7FEF90E080E0F4
:1027D0000C94CA3490E080E00E94A63421E0893E47
:1027E0009E4F09F020E0822F089582E090E00C9443
:1027F000983483E090E00C949834CF9384E090E098
:102800000E949834C82F82E290E00E949834982F5A
:102810008C2FCF910895CF93C92F682F84E090E03B
:102820000E94AC346C2F82E290E0CF910C94AC34D7
:10283000AB01BC018FE090E00C94BE34AB01BC0155
:1028400083E190E00C94BE3460E070E0CB010C9426
:102850001E1460E070E0CB010E9418140C94241444
:1028600069EE7EEF90E080E00E94CA3460E082E092
:1028700090E00E94AC3460E083E090E00E94AC34D1
:102880001092540210925502109256021092570262
:1028900060E084E090E00E94AC3460E082E290E08E
:1028A0000E94AC3460E085E090E00E94AC3460E0CF
:1028B00086E090E00E94AC346FEF87E090E00E94E9
:1028C000AC3440E050E0BA0188E090E00E94BE34B1
:1028D00060E08DE090E00E94AC3440E050E0BA014E
:1028E00088E190E00E94BE3460E087E190E00E94C1
:1028F000AC3440E050E0BA018CE190E00E94BE347C
:1029000070E060E080E290E00E94CA3440E050E075
:10291000BA0188E190E00E94BE340C9429140C9412
:102920003014682F8EE090E00C94AC340E941C2C84
:102930006093A9027093AA028093AB029093AC02B9
:102940006093A5027093A6028093A7029093A802B9
:10295000089585B7806885BF85B7806885BF08956D
:10296000089508950C94B01408950C94B4140E9422
:10297000A91484E39EE20E947F2C0E94B1140C945F
:10298000B21481E008950C94C114089508950E9432
:10299000C5140C94C6140E94072C0E94E2180E94D1
:1029A000E2250C94B514CF93C82F8091AD0282FF1D
:1029B0001EC080FF1CC08BE392E00E947E088091C5
:1029C000AD0280FF14C01F92CF9386E392E09F93E5
:1029D0008F930E9417098091AD020F900F900F9076
:1029E0000F9080FF04C084E392E00E947E088C2F49
:1029F000CF910C94170AAF92BF92CF92DF92EF92D1
:102A0000FF920F931F93CF93DF93CDB7DEB72A9733
:102A10000FB6F894DEBF0FBECDBF0E94F318811130
:102A20000E9496148EE9A82E82E0B82E10E000E0F5
:102A3000C02E802F0E94F117E82EF501F1905F0162
:102A4000F81609F44FC08091AD0281FD0E94F7177E
:102A50008F2D8E25D12CFF24F394982F9F21E9F1FF
:102A60000E94C314882399F0DE82CF82EF2081E098
:102A700009F480E088870E94102C8160782F9A8763
:102A800089874E815F8168858A850E941F0AF801C7
:102A9000E256FD4F8081F826F0820E94E8260E94CF
:102AA000831E0E94A42A90919D02891791F10E9491
:102AB000A42A80939D022A960FB6F894DEBF0FBE1B
:102AC000CDBFDF91CF911F910F91FF90EF90DF90DD
:102AD000CF90BF90AF900C94D314D394FF0CF8E038
:102AE000DF12BBCF0F5F1F4F0730110509F0A0CFDA
:102AF0008FEF89838A831B820E94102C8160782F3C
:102B00009D838C8349815A816B818D810E941F0A2C
:102B1000C4CF2A960FB6F894DEBF0FBECDBFDF91AB
:102B2000CF911F910F91FF90EF90DF90CF90BF90CA
:102B3000AF90089590E080E008950895E72FF0E0C9
:102B400097E0899FE00DF11D112483E0EE0FFF1F38
:102B50008A95E1F7E60FF11DEE0FFF1FE455FF4FD9
:102B6000859194910895FC01EE0FFF1FE25BFD4FEC
:102B7000859194910895CF93DF930E94D216EC0132
:102B8000811520E5920708F042C0811530E49307D3
:102B900008F0BDC0883E910528F5803E910508F0FB
:102BA0009DC0883A910588F4853A910508F08FC058
:102BB0008130910509F492C0009709F48FC0049701
:102BC00008F08CC0D0E0C0E089C08F3B910508F4CC
:102BD00089C0805C9109C03CD105A0F30E94B31567
:102BE000EC017CC08115904250F4C11581E0D807FA
:102BF00008F074C0CD3ED10528F3D0656FC0C11573
:102C000090E3D90708F079C0CE019F70E7CF811516
:102C100025E5920758F5811534E5930708F0A6C01D
:102C2000811542E5940750F4C11581E5D80708F4F1
:102C300071C0DC2FCC27C16FD06A50C0982F9695F9
:102C400096959E0123703327C115D34508F07FC0A8
:102C5000C1E0D0E002C0CC0FDD1F2A95E2F720E2F0
:102C6000929FC0011124C82BD92B6FC0C11589E5D3
:102C7000D807A8F4C11598E5D90708F07CC0C1159C
:102C800026E5D20708F09ECF8C2F0E946917C82F27
:102C9000D0E0DC2FCC27CC27DF71D0621FC0C1155C
:102CA0003AE5D30708F46CC0CE01905681159042E6
:102CB00008F088CF8D2F8F710E94691790E0982FB0
:102CC000882788279F719C012C2BE901E6CFC55AE4
:102CD000D0E0C957DE4FC881D0E0D064CE01DF918B
:102CE000CF910895C85AD0E0CC0FDD1FC75ADE4FF0
:102CF0000990D881C02DD464F1CFCE019927D3FF9C
:102D000003C0EC01D86CEACFEC01D06CE7CFDF70E8
:102D1000D06AE4CFCE01E4E096958795EA95E1F795
:102D200083702C2F26952695237090E2299F900181
:102D30001124382B8C2F8370C1E0D0E002C0CC0F5F
:102D4000DD1F8A95E2F7C22BD32BDC68C7CFC1E029
:102D5000D0E002C0CC0FDD1F2A95E2F730E2939F4E
:102D6000C0011124C82BD92BDA68B8CFD82FCC27B3
:102D7000C46FD06AB3CFDC2FCC27C06FD06AAECF80
:102D80008C2F8F700E94691734E0D695C7953A95BD
:102D9000E1F7CF709C2FEC01D069A0CF0E949E1567
:102DA0000C94BB1582389105B1F1B0F481339105D3
:102DB00009F475C048F48932910509F469C08A3272
:102DC000910509F473C008958533910509F459C03C
:102DD0008933910501F10895833E9105A9F138F4F5
:102DE000803E9105F9F0823E910549F10895863EB5
:102DF0009105A9F1873E9105C9F1843E910519F528
:102E00002091EE0221FF1FC08091ED0284FD14C0CD
:102E100087EE90E008952091ED022370A1F080EEFE
:102E200090E008952091ED0220FD47C03091EE0220
:102E300030FF09C024FF44C090E080E004C020912E
:102E4000ED0222FDF7CF08952091ED0222FD3BC057
:102E50003091EE0230FDE3CF24FFF5CFEDCF20918E
:102E6000ED0223FFF0CF24FDE7CFD2CF2091ED027A
:102E700023FD2CC03091EE0231FFEECF84EE90E0C6
:102E800008952091ED0225FFDECF89E290E00895BC
:102E90002091ED0225FFD7CF85E390E008952091A2
:102EA000ED0226FFD0CF8AE290E008952091ED0256
:102EB00026FFC9CF81E390E0089589E390E008956B
:102EC00083EE90E0089582EE90E0089586EE90E023
:102ED00008959091ED0292FF06C0282F28712830A6
:102EE000F9F4877F846093FF06C0282F287128316A
:102EF000F1F4877E84612091EE0220FF06C0382F16
:102F000038713830D9F4877F816021FF06C0282FBF
:102F100028712831D1F4877E816194FD877E0895E0
:102F2000282F24712430F9F68B7F8860DCCF282F7E
:102F30002471243101F78B7E8861DDCF382F317108
:102F4000313019F78E7F8860E0CF282F2171213131
:102F500021F78E7E8861E1CF0C94E4130E94F31870
:102F60002FEF86E791E0215080409040E1F700C0CC
:102F700000000E94F31880E00E94F11780FF04C057
:102F80000E94AC170C945B2C08950C94AE170E9411
:102F9000EA13811102C00E948F140E94F5138093DE
:102FA000AD020E94FD139093EE028093ED020E9409
:102FB000C5170E94F913682F70E090E080E00E942E
:102FC000D50D609150027091510280915202909102
:102FD00053020C940F0E08950C94EB1708950C9463
:102FE000EE17E82FF0E0EA50FD4F80810895CF9270
:102FF000DF92EF92FF920F931F93CF93DF938DE5B4
:1030000092E00E947E0886EFE82E82E0F82ED0E063
:10301000C0E098E5C92E92E0D92E00E512E0DF93DA
:10302000CF93DF92CF920E94170985E592E00E942C
:103030007E08F70181917F010E94F7091F928F930B
:103040001F930F930E9417098EE492E00E947E085E
:1030500021968DB79EB708960FB6F8949EBF0FBE07
:103060008DBFC730D105D9F6DF91CF911F910F9158
:10307000FF90EF90DF90CF90089580EA8A95F1F766
:10308000089500C008950C943D18F894E82FE29537
:10309000EF70F0E031A1282F2F7081E090E001C0A7
:1030A000880F2A95EAF7982F9095932391A392A1E0
:1030B000892B82A378940895CF93DF93C2E9D1E05E
:1030C00089918F3F11F00E94451881E0C939D807D6
:1030D000B9F7CAE8D1E089918F3F11F00E944518F5
:1030E00081E0C239D807B9F7DF91CF910895CF9227
:1030F000DF92EF92FF920F931F93CF93DF93EC0138
:10310000D62E062F10E0C8018E569E4F7C01FC0182
:1031100080818F3F09F44BC0F894E82FE295EF705F
:10312000F0E091A18F7021E030E001C0220F8A957C
:10313000EAF7892F822B81A382A12095282322A33D
:1031400078940E944118EAE8F1E030E020E0C12CD8
:1031500051E041914F3FA1F1A42FA295AF70B0E093
:1031600090968C9190E04F7002C0959587954A9506
:10317000E2F780FD25C0852F022E01C0880F0A943A
:10318000EAF7C82A2F5F3F4F2830310511F7F701C2
:1031900080818F3F11F00E94451861E0C11001C08D
:1031A00060E08D2D0E944318C00FD11FC882DF91AF
:1031B000CF911F910F91FF90EF90DF90CF900895E6
:1031C00080E0DFCF0E945C18EFEEF2E0A6EFB2E005
:1031D00011921D9282E0E63FF807D1F787E00E9446
:1031E0003C190C947209FF920F931F93CF93DF93B6
:1031F00000D000D000D00F92CDB7DEB78E010F5FA8
:103200001F4F87E0F80111928A95E9F7F12C6F2D95
:10321000C8010E947718F394F7E0FF12F8CF47E057
:1032200050E0B8018FEE92E00E948B34FF24F394BB
:10323000009709F4F12C892B41F087E0F801AFEEFB
:10324000B2E001900D928A95E1F72F2D47E066EFED
:1032500072E08FEE92E00E943D190E9478098F2D56
:1032600027960FB6F894DEBF0FBECDBFDF91CF918A
:103270001F910F91FF9008950895FF920F931F9350
:10328000CF93DF93F82E092F162FD72FC42F222389
:1032900049F081E08093B0020E94102C9093AF021D
:1032A0008093AE028091B0028823A1F08091AE029B
:1032B0009091AF020E94282C059760F0EF2DF02F1F
:1032C000A12FBD2FCE0FDF2FD11DEC17FD0741F42D
:1032D0001092B002DF91CF911F910F91FF9008954E
:1032E00081918D93F2CF0E94892B0E94962E0E948D
:1032F000AF2E0E94C52E0E94C714FBCF8091020101
:103300001F928F93809103011F928F9380910601EA
:103310001F928F93809107011F928F9380910801D4
:103320001F928F93809109011F928F938CE692E0F8
:103330009F938F930E9417098DB79EB70E960FB675
:10334000F8949EBF0FBE8DBF0895883228F58E3148
:1033500008F072C08B3041F130F4873009F4CFC0EF
:103360008BEC93E0E0C0833109F45FC08431C1F796
:103370008DEE93E00E947E088091B502882309F4C7
:10338000FEC01092B5021092B4021092B3021092D5
:10339000B2021092B10220C08F3409F4C7C0D8F530
:1033A000893231F38833E1F680EF93E00E947E08A2
:1033B0000E947E191F9281E08F931F9285E08F9368
:1033C00089EE92E09F938F930E9417090F900F90C0
:1033D0000F900F900F900F902091B502222309F4C7
:1033E000C9C08091B1029091B202009711F489E9AD
:1033F00091E09F938F931F922F9389EB93E09F937C
:103400008F930E9417090F900F900F900F900F90BD
:103410000F9081E00895813509F49CC008F49CC0A8
:10342000823509F09DCF81E082C08FED93E00E944C
:103430007E080E947E19D0CF8D518093B5028330D3
:1034400009F442C058F48130C1F08230A1F11092E9
:10345000B5028CED93E00E947E081BC0853009F414
:1034600045C0D8F1863099F782E091E09093B4029C
:103470008093B30281EE91E008C089E091E09093DF
:10348000B4028093B3028DE991E09093B2028093ED
:10349000B1028091B502882309F49ECF1F928F93C9
:1034A00088ED93E09F938F930E9417090F900F90E0
:1034B0000F900F9091CF88E091E09093B4028093A9
:1034C000B30286EA91E0E1CF87E091E09093B40205
:1034D0008093B30282EB91E0D8CF86E091E09093A5
:1034E000B4028093B3028FEB91E0CFCF83E091E001
:1034F0009093B4028093B3028EEC91E0C6CF8EE13C
:103500008093090182E3809308018AE08093070198
:1035100084E18093060188E08093030188E2809330
:1035200002018EEC93E00E947E0856CF8AE0E09183
:10353000B302F091B4023097D1F02081082E000C34
:10354000990B820F911D8F3F910541F03CF08FEF59
:10355000808307C08FEFEBCF86EFE9CF97FFF8CFDF
:10356000108280811F928F9385EC93E09BCF82EC39
:1035700093E0D9CF85EB93E00E947E084ACF80E0AC
:103580000895CF93C82F1F928F9386E094E09F9366
:103590008F930E94170961E070E080E090E004C022
:1035A000660F771F881F991FCA95D2F70E94D50D05
:1035B0000F900F900F900F90CF910C947C0DEF9285
:1035C000FF920F931F93CF93DF938B3109F401C1C7
:1035D00008F09FC08B3009F4BBC008F07DC0863076
:1035E00009F4C9C048F4853009F4A1C087E498E023
:1035F0000E947E0880E0CFC0873009F4D3C08830B5
:10360000A9F70E94F9131F928F938AE298E09F9383
:103610008F930E9417090E94F51383FB992790F955
:103620001F929F9382FB992790F91F929F9381FB92
:10363000992790F91F929F93982F91701F929F93B3
:103640001F928F9381EE97E09F938F930E941709AB
:103650000E94FD1387FB222720F91F922F9386FBE0
:10366000222720F91F922F9385FB222720F91F92F2
:103670002F9384FB222720F91F922F9383FB22276D
:1036800020F91F922F9382FB222720F91F922F935C
:1036900091FB222720F91F922F93292F21701F922F
:1036A0002F9381FB222720F91F922F93282F21701F
:1036B0001F922F939F938F938CEF96E09F938F93FE
:1036C0000E9417098DB79EB788960FB6F8949EBFD3
:1036D0000FBE8DBF81E05FC0803109F492C080F4DD
:1036E0008E3009F083CF9091AD02892F8B7F92FFAE
:1036F00084608093AD0282FF81C082E798E075C04C
:10370000863109F48EC0893109F070CF86E794E0E4
:1037100021C08A3249F190F4873211F128F48E31B8
:1037200008F464CF8D511DC0893209F05FCF85EB5D
:1037300098E00E947E080E947B09CCCF833468F415
:103740008A3308F093C0853359F0883309F04ECF9F
:1037500089E595E00E947E08BDCF833409F046CF0D
:1037600080E00E94C11AB6CF85ED98E00E947E08E5
:103770000E948F14AFCF8091AD02807F8093AD0205
:1037800082E395E00E947E0881ED98E00E947E0829
:1037900081E08093B602DF91CF911F910F91FF904E
:1037A000EF9008959091AD02892F8E7F90FF8160F8
:1037B0008093AD0280FF03C089EA98E0CBCF8CE90B
:1037C00098E00E947E088091AD02817F8093AD02D7
:1037D00081CF9091AD02892F8D7F91FF8260809380
:1037E000AD0281FF08C08FE898E00E947E088091BA
:1037F000AD028160EBCF81E898E0ACCF82E698E043
:10380000A9CF9091AD02892F877F93FF8860809325
:10381000AD0283FF03C086E598E0E7CF89E498E036
:1038200099CF0E941C2C162F072FF82EE92ED0912D
:10383000EC02C09127010E94A42AEF92FF920F93FD
:103840001F931F92DF931F92CF931F928F938BE052
:1038500094E09F938F930E9417098DB79EB70C96A3
:103860000FB6F8949EBF0FBE8DBF34CF895379CF6A
:1038700080E008950C94381CCF93C82F8091B60235
:103880008130C1F0882339F0823009F444C01092AD
:10389000B60280E00DC00E9427138232D1F78C2F30
:1038A0000E94381C81111BC08C2F0E94DF1A81706E
:1038B000CF9108950E942713823289F38C2F0E94A2
:1038C0003A1C81111BC0C431D9F060F4CB3071F0C7
:1038D000C031D1F080E094E00E947E0813C081E006
:1038E00090E0E5CFC93261F0C833A1F782E395E0FB
:1038F0000E947E0882E094E00E947E0881E0D7CF9B
:103900001092B60280E0D3CF82E08093B60288E3C3
:103910000E94A519F3CF8C2F0E94A51981E0C8CF72
:103920008091BD0280FF12C06091070185E0689F11
:10393000B001112475956795759567956038710587
:10394000A8F561157105A1F1862F089581FF09C0C1
:103950006091070185E0689FB00111247595679516
:10396000EDCF6091070182FD0AC08091BC028823DF
:10397000D1F09091060160910701891728F085E048
:10398000689FB0011124DACF869FB001112485E031
:10399000869F9001879F300D1124692F70E0C90127
:1039A0000E941134CBCF65E070E0CECF8FE7089551
:1039B00081E008958091BD0280FF0CC060910301F9
:1039C00070E075956795759567956115710549F175
:1039D000862F089581FF06C06091030170E0759500
:1039E0006795F3CF6091030182FD0BC09091BB02FC
:1039F0009923A1F06091020180910301961738F09C
:103A0000682F70E06038710500F38FE70895899F93
:103A1000C001112470E00E941134F4CF61E070E025
:103A2000D7CF81E008958D3E31F40E94901C81959E
:103A30008093C10208958E3E19F40E94901CF8CF25
:103A40008F3E31F40E94901C81958093C0020895AE
:103A5000803F19F40E94901CF8CF893F29F40E94FE
:103A6000DA1C8093C20208958A3F21F40E94DA1C76
:103A70008195F7CF8B3F31F40E94DA1C81958093BA
:103A8000C30208958C3F19F40E94DA1CF8CF9FE01E
:103A9000980F983070F4815F990B21E030E001C0FD
:103AA000220F8A95EAF78091BF02822B8093BF0292
:103AB00008958D3F31F48091BD0281608093BD02F5
:103AC00008958E3F21F48091BD028260F7CF8F3F31
:103AD000B9F78091BD028460F1CF4091C0028D3E64
:103AE00059F48091C10287FF0DC01092C1024111AB
:103AF0000BC01092BC0208C08E3E81F48091C102BE
:103B000018169CF3442381F08091C2029091C30265
:103B1000892B09F05AC01092BB0208958F3E49F4D8
:103B200047FFF0CF1092C0028091C1028111ECCF0B
:103B3000E0CF803F19F41416ACF3E4CF9091C202A9
:103B4000893F29F41916F4F61092C202DBCF8A3F9E
:103B500019F497FFD7CFF8CF9091C3028B3F29F488
:103B600097FFD0CF1092C302CDCF8C3F19F4191616
:103B7000CCF3C8CF9FE0980F983090F4815F990BF9
:103B800021E030E0B90102C0660F771F8A95E2F7A5
:103B9000CB0180959091BF0289238093BF02B2CF61
:103BA0008D3F31F48091BD028E7F8093BD02AACFFC
:103BB0008E3F21F48091BD028D7FF7CF8F3F09F0BA
:103BC000A1CF8091BD028B7FF0CF08958091AD028F
:103BD00083FF7EC08DE099E00E947E088091BF0245
:103BE0001F928F9388E099E09F938F930E9417090B
:103BF00086E099E00E947E088091C002282F082E5E
:103C0000000C330B3F938F9383E099E09F938F9346
:103C10000E94170981E099E00E947E088091C1020C
:103C2000282F082E000C330B3F938F938EEF98E0D4
:103C30009F938F930E9417098CEF98E00E947E0853
:103C40008091C202282F082E000C330B3F938F93D4
:103C500089EF98E09F938F930E94170987EF98E070
:103C60000E947E088091C302282F082E000C330B7F
:103C70003F938F9384EF98E09F938F930E9417094F
:103C800081EF98E00E947E088091BC021F928F9382
:103C90008EEE98E09F938F930E9417098CEE98E028
:103CA0000E947E088091BD021F928F9389EE98E05A
:103CB0009F938F930E94170986EE98E00E947E08DA
:103CC0008DB79EB74C960FB6F8949EBF0FBE8DBFB2
:103CD0000E94102C9C019091C0028091C102982BEF
:103CE00021F03093BA022093B9029091C2028091E0
:103CF000C302982B21F03093B8022093B7028EEBC9
:103D000092E00C94FC2AEF92FF920F931F93CF93B3
:103D1000DF9300D000D000D0CDB7DEB786E0EEEB69
:103D2000F2E0DE01119601900D928A95E1F7E090A4
:103D3000C002F090C1020091C2021091C302109221
:103D4000C0021092C1021092C2021092C3028E2DC4
:103D50008F2991F08091B9029091BA020E94282C8B
:103D6000AC019091BC02992309F43FC080910801F5
:103D70008417150608F447C0802F812B91F080919D
:103D8000B7029091B8020E94282CAC019091BB021E
:103D9000992309F477C0809104018417150608F46B
:103DA0007FC08091C0029091C102892B9091C20284
:103DB000892B9091C302892B11F00E94E61D86E0A9
:103DC000FE013196AEEBB2E001900D928A95E1F7DB
:103DD00026960FB6F894DEBF0FBECDBFDF91CF9110
:103DE0001F910F91FF90EF900895209109018AE0B3
:103DF000289F900111242417350708F0BDCF9F5F3D
:103E00009093BC0202C09F3FD1F7EE2059F00E9470
:103E1000901C9FEF1E140CF491E0899F802D1124BB
:103E20008093C002FF2059F00E94901C9FEF1F1446
:103E30000CF491E0899F802D11248093C102309170
:103E4000C002332309F498CF2091C102222309F440
:103E500093CF45EB3403C0011124992359F090937B
:103E6000C00245EB240390011124332339F0309331
:103E7000C10282CF81E08093C002F3CF81E08093C2
:103E8000C1027ACF209105018AE0289F9001112478
:103E90002417350708F085CF9F5F9093BB0202C0BF
:103EA0009F3FD1F7002359F00E94DA1C9FEF1016B4
:103EB0000CF491E0899F802D11248093C20211237C
:103EC00059F00E94DA1C9FEF11160CF491E0899FC3
:103ED000802D11248093C3023091C202332309F450
:103EE00060CF2091C302222309F45BCF45EB34035A
:103EF000C0011124992359F09093C20245EB240389
:103F000090011124332339F03093C3024ACF81E06A
:103F10008093C202F3CF81E08093C30242CF86E058
:103F2000EEEBF2E0DF011D928A95E9F71092BC02F8
:103F30001092BB021092BD020895EF92FF920F9370
:103F40001F93CF93DF93EB01E82FD11110C04423CF
:103F500021F0F0E0E856F24FE4916E2F7E2F8E2F85
:103F6000DF91CF911F910F91FF90EF9008950D2F4A
:103F700010E0282F30E0442329F02856324FF90171
:103F8000249130E0F6E0CF9FC0011124EFEFF0E084
:103F9000BF010E94FD33AB018C2F90E0880F991F69
:103FA000A5E5A49FB001A59F700D1124861B970B5A
:103FB000982F990F980FBF01601B710B629FD00162
:103FC000639FB00D729FB00D11248B2F9D9FB00188
:103FD0001124672F7727EF01C61BD70BBE01629F05
:103FE000E001639FD00D729FD00D11247F01E91A6B
:103FF000F108E09EB001E19E700DF09E700D11245D
:10400000672F7727E61BF70BE29F8001E39F100DD8
:10401000F29F100D1124E12F722F4230510599F0BB
:1040200048F44115510569F04130510581F0EB2FFD
:104030008D2F07C04430510569F080F0463051059E
:10404000B1F76E2F8DCFE22F7B2F812FFACFE22F8A
:104050007D2FF7CFEB2F822F712FF3CF7B2F822F66
:10406000ED2FEFCF41E00C949D1F08950C9432206A
:10407000CF93DF93762FE901682F842F0E9436209B
:10408000798368838A83DF91CF9108958091FD02BF
:10409000982F9E7F29F4817082608093FD0208959D
:1040A0008A34E8F381708864F8CF88E090E00C945B
:1040B000A034CF92DF92EF92FF926B017C010E94BD
:1040C0004620B701A60188E090E0FF90EF90DF90D6
:1040D000CF900C94BE34EDEFF2E083E08083118248
:1040E0008FEF8283838314826081718182819381C7
:1040F0000C9459208091AD0280FF76C088E69CE048
:104100009F938F930E9417098091AD020F900F909B
:1041100080FF6AC08091FD0281701F928F938BE4B3
:104120009CE09F938F930E9417098091AD020F909E
:104130000F900F900F9080FF57C08091FD028695E1
:104140001F928F9380E39CE09F938F930E941709A7
:104150008091AD020F900F900F900F9080FF44C0A0
:104160008091FE021F928F9386E19CE09F938F9334
:104170000E9417098091AD020F900F900F900F9041
:1041800080FF32C08091FF021F928F938CEF9BE0E3
:104190009F938F930E9417098091AD020F900F900B
:1041A0000F900F9080FF20C0809100031F928F938B
:1041B00082EE9BE09F938F930E9417098091AD023E
:1041C0000F900F900F900F9080FF0EC08091010311
:1041D0001F928F9386EC9BE09F938F930E94170909
:1041E0000F900F900F900F9008958091FD0280FF27
:1041F00002C08695089580E0089590910103933060
:1042000018F49F5F90930103882351F06091FD02A1
:104210007091FE028091FF02909100030C9459204E
:10422000089581E00C94FD2090910103992319F0E9
:10423000915090930103882351F06091FD02709199
:10424000FE028091FF02909100030C945920089582
:1042500081E00C94142170E00C94612860910E01AF
:104260008091FD0280FF0AC080910D0123E0829FB2
:10427000C00111248E5F9C4F0C942B2180910F0163
:104280009091100123E0829FF0011124EE5FFC4F1A
:10429000891750F71182108212828F5F3396F8CF00
:1042A0009091FD0290FF14C090910F012091100198
:1042B00033E0939FF0011124EE5FFC4F921710F052
:1042C0000C942E218183608342839F5F3396F6CFC7
:1042D0000895CF93DF9300D00F92CDB7DEB79091C2
:1042E000FD0290FF0AC09E012F5F3F4F0E943820C1
:1042F0004B8169818A810E9450210F900F900F900D
:10430000DF91CF910895CF93DF93EC01EC81F0E042
:10431000ED56F34F4491EDEFF2E0628181810E940E
:1043200069218C818F5F8C83DF91CF910895CF932A
:10433000DF93EC01EDEFF2E0438162818C810E941A
:1043400069218C818F5F8C83DF91CF9108950F93CA
:104350001F93CF93DF9300D00F92CDB7DEB78C01C0
:104360008091C40281110AC09E012F5F3F4F4FEF21
:104370006FEF0E9438208A818093C402F801648123
:10438000613069F08091C40240E0662361F040E052
:10439000623011F44091C40280E060E004C060919A
:1043A000C40240E080E00E945021F801848190E046
:1043B000019663E070E00E94113484830F900F90A7
:1043C0000F90DF91CF911F910F9108954F925F92BF
:1043D0006F927F928F929F92AF92BF92CF92DF9215
:1043E000EF92FF920F931F93CF93DF9300D00F9222
:1043F000CDB7DEB7182FD62E042F722E9091FD0266
:1044000090FF46C0E92FE695AE2FB0E0AA50BE4F10
:104410008C918093D0029E7F923009F04DC09E0116
:104420002F5F3F4F812F0E9438204B8169818A8105
:104430000E9450211093FE02D092FF0200930003CD
:10444000772009F49CC06091FD027091FE0280917A
:10445000FF02909100030E9459208091AD0280FFDD
:1044600017C0809100031F928F938091FF021F92CB
:104470008F938091FE021F928F9389E899E09F931A
:104480008F930E9417090FB6F894DEBF0FBECDBF01
:104490000F900F900F90DF91CF911F910F91FF9090
:1044A000EF90DF90CF90BF90AF909F908F907F90D4
:1044B0006F905F904F900895823019F4009100033F
:1044C000B9CF863019F41091FE02B4CF8930D9F3F8
:1044D000893109F0AFCFE9518E2F8170682E8E2F70
:1044E00080958170C82EE695F0E0ED56F24FE5908C
:1044F000F490412CFF249EEAA92E99E0B92E6091F8
:104500001101461618F00E942E2194CF842C912C74
:104510008E9CC0018F9C900D9E9C900D112470E08C
:104520000E94FD33512E611028C0560E8091AD02BD
:1045300080FF11C0FF92EF921F92CF921F925F9265
:104540001F924F92BF92AF920E9417090FB6F89434
:10455000DEBF0FBECDBF20910F01820E911C9401D2
:10456000220F331F280D391D2E5F3C4F402F6D2D1C
:10457000852D0E9438204394C2CF561AD7CF809100
:10458000AD0280FF85CF1F920F931F92DF921F9283
:104590001F9382E699E073CFEDEFF2E09181282F2F
:1045A0004381628188E0890F0C94E62181E00C94BC
:1045B000CC22EDEFF2E09181282F4381628188EFD8
:1045C000890F0C94E62181E00C94D922EDEFF2E002
:1045D000628128E0620F08F46FEF282F4381818108
:1045E0000C94E62181E00C94E622EDEFF2E062818A
:1045F00028E0621B08F460E0282F438181810C943D
:10460000E62181E00C94F522EDEFF2E0438128E011
:10461000420F08F44FEF282F628181810C94E6212C
:1046200081E00C940423EDEFF2E0438128E0421B8B
:1046300008F440E0282F628181810C94E62181E01A
:104640000C94132320E00C94E621EF92FF921F9329
:10465000CF93DF93EC0110E0EE24EA94F12C60910B
:104660001101161770F00E942E219A818C8190FF03
:1046700027C08F5F8C83DF91CF911F91FF90EF90C8
:10468000089520910F01422F410F5527551FCA0150
:104690009A01220F331F280F391F2E5F3C4F70E005
:1046A000C7010E941134962F8C81409100036091C4
:1046B000FF02199F800D11240E9438201F5FCFCF69
:1046C0008150D8CFAF92BF92CF92DF92EF92FF92FC
:1046D0000F931F93CF93DF93FC0182810FEF80FF35
:1046E00001E010E04EE0A42E809111011817C8F0EF
:1046F0000E942E218091C602013009F055C081111F
:1047000002C08091110181508093C602DF91CF9148
:104710001F910F91FF90EF90DF90CF90BF90AF90DF
:104720000895C0910F01C12ED12CCC0DDD2DD11DCE
:10473000CE01880F991FC80FD91FCE5FDC4F198299
:1047400018821A8234E0E32EF12CB12C8091C6023B
:104750008B0D8F301CF16A2D0E94EF33892F082EAC
:10476000000C990BC816D90691F4809100038E9D18
:10477000A0018F9D500D112455954795559547954E
:104780009E016091FF028091FE020E943820B00ECF
:10479000F1E0EF1AF108D1F61F5FA6CF87FFDFCF58
:1047A00090911101890FDBCF90E00196609111018A
:1047B00070E00E941134A8CF0F931F93CF93DF9323
:1047C00080910F019091100123E0829FF00111244C
:1047D000EE5FFC4F891740F1C0E0D3E0609111011A
:1047E000C61740F10E942E2120910B018091C50235
:1047F000820F8093C50290910C01920F90930C014F
:10480000191654F4082E000C990B409111014150D7
:10481000550B841795071CF0219520930B01DF9110
:10482000CF911F910F9108951182108212828F5F94
:104830003396D0CF0C2F10E070E0C8010E941134E5
:1048400020910F01820F482F50E02091C502022EC7
:10485000000C330B02171307BCF020910C01022E41
:10486000000C330B201731077CF08D9F9001112431
:104870002E5F3C4F409100036091FF028091FE0249
:104880000E943820CF5FAACFFA01EE0FFF1FE40F7E
:10489000F51FEE5FFC4F118210821282F3CF8F92D0
:1048A0009F92AF92BF92CF92DF92EF92FF920F93BF
:1048B0001F93CF93DF93EC014C81042F10E09801FC
:1048C000D8010E9455349B01AC010E946B344B010E
:1048D0005C01E0E2F0E0E01BF10BA5E5B0E0AC012B
:1048E0009B010E946B346B017C019F01DF010E94E0
:1048F0004D349B01AC010E9476349B01AC01280D24
:10490000391D4A1D5B1DC701B6010E942534F22ED8
:10491000822F90E039E23F1560F143E0249F90013F
:10492000112435952795122F109500E085E5E82E86
:10493000EF1880911101081758F10E942E219C81D7
:1049400081E0992319F0903219F48FEF80930A01D6
:1049500080910A01890F8C83DF91CF911F910F9174
:10496000FF90EF90DF90CF90BF90AF909F908F908F
:10497000089525E530E0B901681B790B9B01220FF2
:10498000331F260F371F37FFCCCF2F5F3F4FC9CFC5
:104990008E2D01FD8F2D20910F01622F600F772743
:1049A000771F9B01220F331F260F371F2E5F3C4FAF
:1049B000412F6091FF020E9438200F5FBACF0F9302
:1049C0001F93CF93DF93EC0110E000E09091110171
:1049D0009017110609F06CF40E942E218C8190E052
:1049E0000196817099278C83DF91CF911F910F9150
:1049F000089520910F01A801420F511D9A01220F25
:104A0000331F240F351F2E5F3C4F4C816091FF02F6
:104A10008091FE0296959017110651F04CF04423B8
:104A200049F0409100030E9438200F5F1F4FCECF06
:104A30004423B9F340E0F7CF6091FD02669570E042
:104A40004BE050E082E191E00E947E34892B19F422
:104A500081E08093D1020E94102C9093C802809331
:104A6000C7028091AD0280FF08C089E499E09F935E
:104A70008F930E9417090F900F9008951092D10202
:104A80008091AD0280FF08C080E399E09F938F93EF
:104A90000E9417090F900F9008959091FD0290FFCA
:104AA00054C0917081113BC092609093FD026623C7
:104AB000E9F16091FD027091FE028091FF029091F8
:104AC00000030E9459208091AD0280FF0FC08091A9
:104AD000FD0286951F928F938CE09BE09F938F93AE
:104AE0000E9417090F900F900F900F906091FD0298
:104AF000669570E04BE050E082E191E00E947E34E8
:104B0000892B01F10E943E2581E08093CA024091E9
:104B100000036091FF028091FE020C9422238532F3
:104B200010F09864C2CF880F982BBFCF8091AD0250
:104B300080FFDCCF8091FD0286951F928F938EEED1
:104B40009AE0CCCF0E941C25DFCF0895682F90916A
:104B5000FD02969581E0890F853208F081E00C9482
:104B60004D2581E00C94A625682F9091FD02969525
:104B70008FEF890F09F484E20C944D2581E00C94A9
:104B8000B42561E00C944D258091FD0281608093F5
:104B9000FD028091AD0280FF0DC01F9281E08F93D6
:104BA00080E89AE09F938F930E9417090F900F90CF
:104BB0000F900F908091FD0286950C94C12560E0C6
:104BC0000C944D258091CF02811160C08091AD027F
:104BD00080FF14C08FEA9BE09F938F930E94170978
:104BE0008091AD020F900F9080FF08C089E99BE093
:104BF0009F938F930E9417090F900F900E94EA13C2
:104C0000811110C08091AD0280FF08C081E79BE058
:104C10009F938F930E9417090F900F900E948F14FB
:104C20000E946B200E9455206093FD027093FE024B
:104C30008093FF02909300036E7FC1F48091AD02D8
:104C400080FF08C088E29BE09F938F930E94170922
:104C50000F900F900E946B200E9455206093FD02E0
:104C60007093FE028093FF02909300030E944620FF
:104C70000E947A201092D1028091FD0280FF03C031
:104C800086950E94DF2581E08093CF020895809170
:104C9000FD0281608093FD028091AD0280FF0DC016
:104CA0001F9281E08F9387E49AE09F938F930E94F5
:104CB00017090F900F900F900F908091FD0286952D
:104CC0000C94DF251092CE028091CD0281110E94BA
:104CD00047260C941C258091FD028E7F8093FD0257
:104CE0006091FD027091FE028091FF02909100039D
:104CF0000E9459208091AD0280FF0FC08091FD027B
:104D000081701F928F938FE09AE09F938F930E9400
:104D100017090F900F900F900F900E943E252FEFD4
:104D200080E792E0215080409040E1F700C0000011
:104D30000C942E218091AD0280FF10C08091FD0265
:104D4000809581701F928F9387EB9AE09F938F934A
:104D50000E9417090F900F900F900F908091FD0205
:104D600080FD0C946B260C94C4258091FD028E7FEF
:104D70008093FD028091AD0280FF0CC01F921F92B4
:104D800085ED99E09F938F930E9417090F900F90E4
:104D90000F900F900E943E252FEF80E792E0215068
:104DA00080409040E1F700C000000C942E210E944A
:104DB0003E258091CE0281110AC081E08093CE020F
:104DC0008091FD0281708093CD020C94B5260895E8
:104DD0000F931F93CF93DF938091D102882309F41F
:104DE00086C08091D002E091FD02E695E81BE09339
:104DF000C902823091F5F0E0E157F34FE491CE2FF4
:104E0000D0E003E811E28091CA02882361F0109299
:104E1000CA020E94102C9093C8028093C70210927D
:104E2000CC021092CB020E94102CE091C702F091AC
:104E3000C8028E1B9F0B8F3F9F4708F058C0EC0F96
:104E4000FD1FF093C802E093C70287EC92E0F801DF
:104E5000DF91CF911F910F910994863049F4F0E0D2
:104E6000E457F34FE491CE2FD0E007E911E2CBCF26
:104E7000893051F4E695F0E0E757F34FE491CE2FF7
:104E8000D0E005E213E2BFCF8F3051F4E695F0E0B9
:104E9000EA57F34FE491CE2FD0E002E613E2B3CF0E
:104EA000853149F4F0E0ED57F34FE491CE2FD0E097
:104EB0000CED13E2A8CFC8E2D0E00FE414E2883191
:104EC00009F4A1CF833239F4E1E8FCE0C591D49133
:104ED00007EA11E298CFC4EFD1E00FED14E284327B
:104EE00009F491CFC0EDD7E005E310E28CCFDF915C
:104EF000CF911F910F910895FA01811101C0FB011B
:104F00000994CF93DF93C82FD62F0E94F5208C17DA
:104F100040F00E94F5208D1720F4DF91CF910C9482
:104F2000B1258C2FDF91CF910C94C1251F93CF9386
:104F3000DF93EC01FB011281112309F4C0C00E9430
:104F400027138272CD3CFCE5DF0709F49CC008F012
:104F500044C0C73CECE5DE0709F481C0F0F4C43C72
:104F60009CE5D90709F471C048F4C33CDC4509F459
:104F700069C0812FDF91CF911F910895C53C9CE5B9
:104F8000D90709F467C043EE52E266ED72E2C63C0F
:104F9000DC4579F70E947C2753C0CA3CFCE5DF075B
:104FA00009F467C068F4C83CECE5DE0709F45CC0AE
:104FB00042EF52E261E073E2C93CDC4559F3D9CFDC
:104FC000CB3C9CE5D90709F459C048E251E261E1C4
:104FD00071E2CC3CDC45F1F2CCCFC23DFCE5DF0711
:104FE00009F462C098F4CF3C9CE5D90709F454C099
:104FF00008F44EC0C03DFCE5DF0709F452C0C13DD6
:10500000DC4509F0B6CF6EE089E048C0C53D9CE5BF
:10501000D90709F44FC058F4C33DFCE5DF0709F494
:1050200046C0C43DDC4509F0A4CF88E132C0C63D8E
:105030009CE5D90709F441C0CE35DD4509F099CF8B
:1050400010E097CF0E949A26FBCF4EEB55E261EB22
:1050500075E2A0CF41EB55E26EEB75E29BCF46EDDA
:1050600052E263EE72E296CF41E053E262EF72E207
:1050700091CF4FE153E260E173E28CCF40E153E224
:105080006FE173E287CF41E151E268E271E282CFE2
:1050900081E00E94C125D4CF65E082E00E94812793
:1050A000CFCF68E086E0FACF64E18FE0F7CF67E129
:1050B00085E1F4CF62E289E1F1CF83E2EACF11E04A
:1050C00058CF869A41B34F7B51B35064EFB7F894F1
:1050D0009B01220F331F260F371F280F391F281758
:1050E000390741F4EFBF8FE594E00197F1F700C075
:1050F00000000895DC016D91CD0178E051BB000006
:1051000000C067FF41BB660F000000C000C000C0C8
:1051100041BB00C07A9591F7E2CF0F931F93CF93D5
:10512000DF93C42FD22FFC0182818823C9F04093E2
:10513000D4020E94102C9093D3028093D20280E27A
:105140008C0F883008F050C0C77081E001C0880F14
:10515000CA95EAF7DF91CF911F910F910C94030B41
:105160001091D402141335C08091D2029091D302D1
:105170000E94282C883C910560F5C0E2CD0F1D17D8
:10518000B9F080E2810F883040F4177081E001C0EF
:10519000880F1A95EAF70E940A0BC83048F481E09C
:1051A0009D2F977001C0880F9A95EAF70E94030B14
:1051B000802F0E94FB0AC830B8F4D77081E001C08C
:1051C000880FDA95EAF7DF91CF911F910F910C9438
:1051D0000A0B80E28C0F883038F4C77081E001C080
:1051E000880FCA95EAF7EFCFDF91CF911F910F910A
:1051F00008950F939C01CB01243F4CE5340759F1EE
:10520000A8F4293DFCE53F0701F12A3D4CE53407B0
:10521000D1F1283D3C4591F406E221EE41EE68EDE6
:105220007CE50E948D2880E00F910895263FFCE5E3
:105230003F07E9F0B0F0273F3C45F9F0FC018281DF
:10524000882339F11092D402EFCF07E225EE45EE24
:1052500069ED7CE5E6CF06E221EE40EE64EF7CE509
:10526000E0CF07E225EE44EE65EF7CE5DACF06E21B
:1052700021EE42EE66EF7CE5D4CF07E225EE46EE66
:1052800067EF7CE5CECF08E221E045EE6AED7CE5F4
:10529000C8CF81E0C9CFCF93DF93EC01FB018281BE
:1052A000882309F420C1C430FDE5DF07C8F5CB3FF2
:1052B0009CE5D90730F49E0122503C45243131054C
:1052C00098F50E94FD139093EE028093ED02C03199
:1052D000FCE5DF0709F4E0C008F061C0C8309CE5D8
:1052E000D90709F4CBC088F5C430FCE5DF0709F421
:1052F000B3C0E8F4C2309CE5D90709F4A7C0809197
:10530000ED028260C330DC4509F4A3C08091ED0258
:105310009091EE020E940B140E947C0D80E004C06C
:10532000C236EDE5DE0769F2DF91CF9108958091F5
:10533000ED028061C630FCE5DF0709F48AC008F49D
:105340008FC08091ED02806284C08091ED028D7FDC
:10535000CC309CE5D90709F47CC070F48091ED0253
:105360008C60CA30FCE5DF0709F473C008F48AC01A
:105370008091ED028E7F6DC08091ED02877FCE30EF
:105380009CE5D90709F465C08091ED028B7FCF3091
:10539000DC4508F45EC08091ED028F7E5AC0CD3F9F
:1053A000FCE5DF0709F474C040F5C4319CE5D9077A
:1053B00009F48AC058F4C231FCE5DF0709F474C06F
:1053C00008F46EC08091ED02837F43C0CB3F9CE523
:1053D000D90709F449C008F04DC0C531DC4509F0D2
:1053E00095CF8091ED0282FB992790F921E09227D9
:1053F00090FB82F990FB83F92CC0C1308DE5D80772
:1054000009F458C088F48091EE028360CF3FECE548
:10541000DE0769F18091EE028D7FC115DD4538F11F
:105420008091EE028C7F23C0C3308DE5D80709F44C
:1054300058C008F452C0C236DD4509F067CF9091DC
:10544000ED02892F8F7E94FF806103C08091ED0271
:1054500081608093ED025ACF8091ED028460F9CF94
:105460008091ED028860F5CF8091EE02816080939B
:10547000EE024CCF8091EE028260F9CF8091ED0276
:105480008064E7CF0E947C0D8091ED028068E1CFBF
:105490008091EE028E7FEBCF8091ED028F7DD9CF90
:1054A0008091ED028F7BD5CF0E947C0D8091ED0223
:1054B0008F77CFCF8091EE02982F909591708E7F4D
:1054C000892B90FB81F9D3CF0E947C0D9091ED0246
:1054D000892F97FB87F98058BCCF81E00E949114F7
:1054E00015CF80E0FBCF81E01FCFCF93DF93EB019F
:1054F00086319C4511F50E9427139A81992399F0D2
:105500008A7A91E009F490E09093D502811109C064
:1055100089E20E94CE120E94771380E0DF91CF9142
:10552000089585E3F6CF8091D502811104C089E208
:105530000E94D512F0CF85E3FBCF81E0EFCF9093AF
:10554000DB028093DA020895E091DA02F091DB0247
:10555000309721F00190F081E02D099480E00895CA
:10556000EF92FF920F931F93CF93DF938C01E09103
:10557000DA02F091DB023097C1F10280F381E02D75
:1055800009958091AD0282FF30C080FF04C080EA9F
:105590009EE00E947E08D0E0C0E08AE9E82E8EE01E
:1055A000F82E8091AD0280FF0EC0F801EC0FFD1FB8
:1055B00080811F928F93FF92EF920E9417090F90A4
:1055C0000F900F900F902196C830D10551F7809120
:1055D000AD0280FF0AC088E99EE0DF91CF911F9164
:1055E0000F91FF90EF900C947E08DF91CF911F9167
:1055F0000F91FF90EF900895E091DA02F091DB02B5
:10560000309739F022E0DC012C930480F581E02D05
:10561000099408952091D8023091D90228173907AA
:1056200071F09093D9028093D802E091DA02F09160
:10563000DB02309721F00680F781E02D0994089570
:105640002091D6023091D7022817390771F0909334
:10565000D7028093D602E091DA02F091DB02309714
:1056600021F00084F185E02D099408959C012E5FBE
:105670003F4FAC01485F5F4F80E02417350709F4C6
:105680000895F90191919F019923B9F38F5FF5CFA7
:10569000662349F0FC01329608962191261729F0DD
:1056A000E817F907D1F780E0089581E008959C019B
:1056B000FC0132969FEF80E04191461751F09F3FE9
:1056C00019F4411101C0982F8F5F8630A9F79F3FD1
:1056D00009F40895290F311D97FD3A95F901628368
:1056E0000895FC01329608962191261303C0DF012C
:1056F00011971C92E817F907B9F708950C94572BE6
:105700000C94712B029626E0FC0111922A95E9F780
:1057100008950895089508950C948B2B8091340377
:10572000843059F10E948C2B80E00E94170A0E945D
:10573000D7261092DC0288E190E020E40FB6F894BE
:10574000A895809360000FBE2093600083B7817F8F
:10575000846083BF83B7816083BF7894889583B763
:105760008E7F83BF0FB6F894A89580916000886102
:1057700080936000109260000FBE08950895CF934B
:105780000E948A2B0E94F3180E94BE2BC0E08C2F2F
:105790000E94F117811105C0CF5FC730C1F7CF91CB
:1057A000089581E0FCCF08950C94D32B0E947C0DCA
:1057B0000E94A42A0E94170A0E9462260C94D42BED
:1057C0001F921FB61F9211248F939F93AF93BF9385
:1057D0008091DC02811113C080912C0390912D03E4
:1057E000A0912E03B0912F034196A11DB11D80936E
:1057F0002C0390932D03A0932E03B0932F03BF91FE
:10580000AF919F918F911F901FBE1F90189582E0BE
:1058100084BD93E095BD9AEF97BD80936E00089587
:105820002FB7F89480912C0390912D03A0912E0313
:10583000B0912F032FBF08952FB7F89460912C03D8
:1058400070912D0380912E0390912F032FBF089507
:105850009C014FB7F89480912C0390912D03A09157
:105860002E03B0912F034FBF821B930B08957894A2
:105870001F921FB61F9211248F939F93AF93BF93D4
:1058800080912C0390912D03A0912E03B0912F03B2
:105890000196A11DB11D80932C0390932D03A0931D
:1058A0002E03B0932F03BF91AF919F918F911F90C3
:1058B0001FBE1F90189581E08093E00080E28093E6
:1058C000D8001092C9008FE19EE40197F1F700C063
:1058D000000087E090EBDC0180933D0390933E0352
:1058E000A0933F03B093400388E19CE00FB6F89487
:1058F000A895809360000FBE90936000FFCF9093B7
:105900002B0280932A0208958091EB0208959091D2
:105910003403943031F58093DF027093E102609399
:10592000E00282E08093E9008FEF9091E8008150DF
:1059300095FD06C095ED9A95F1F700008111F5CF20
:105940008091E80085FF0DC050E040E063E070E02A
:105950008FED92E00E94532F8091E8008E77809324
:10596000E8000895BC0184E00C94872CBC0183E01E
:105970000C94872C9C0182E08093E9009FEF80913A
:10598000E800915085FD06C085ED8A95F1F700008D
:105990009111F5CF8091E80085FF0CC050E040E008
:1059A00066E070E0C9010E94532F8091E8008E7775
:1059B0008093E8000895CF93DF93EC0181E080931A
:1059C000E9008FEF9091E800815095FD06C095EDBC
:1059D0009A95F1F700008111F5CF8091E80085FFDD
:1059E00014C050E040E068E070E0CE010E94532F08
:1059F0008091E8008E778093E80088E0FE01A3EEB6
:105A0000B2E001900D928A95E1F7DF91CF91089570
:105A100087ED9EE00E947E0880913303811109C0CA
:105A20000E94E3300E9440318091E20084608093C4
:105A3000E200089583ED9EE00E947E0810923303F9
:105A400008958FEC9EE00C947E088BEC9EE00C9405
:105A50007E0887EC9EE00C947E082091DE022F5F8A
:105A6000822F62E30E94E333992319F02093DE0230
:105A700008951092DE028091E2028823F1F0809175
:105A800034038430C1F49091E9009F702091EC00C0
:105A9000822F817020FD80E8892B93E09093E900AC
:105AA0009091EB0090FF04C09091EE0097FD08C02C
:105AB0008F708093E9001092E20208951092F10035
:105AC0009091E80095FDFACF9091E80090FFF0CF1B
:105AD0009091E8009E779093E800EACF42E061EC75
